{
  "contractName": "DelphiStakeFactory",
  "abi": [
    {
      "constant": true,
      "inputs": [],
      "name": "masterCopy",
      "outputs": [
        {
          "name": "",
          "type": "address"
        }
      ],
      "payable": false,
      "stateMutability": "view",
      "type": "function"
    },
    {
      "constant": true,
      "inputs": [
        {
          "name": "",
          "type": "uint256"
        }
      ],
      "name": "stakes",
      "outputs": [
        {
          "name": "",
          "type": "address"
        }
      ],
      "payable": false,
      "stateMutability": "view",
      "type": "function"
    },
    {
      "inputs": [
        {
          "name": "_masterCopy",
          "type": "address"
        }
      ],
      "payable": false,
      "stateMutability": "nonpayable",
      "type": "constructor"
    },
    {
      "anonymous": false,
      "inputs": [
        {
          "indexed": false,
          "name": "_stakeId",
          "type": "uint256"
        },
        {
          "indexed": false,
          "name": "_contractAddress",
          "type": "address"
        }
      ],
      "name": "StakeCreated",
      "type": "event"
    },
    {
      "constant": false,
      "inputs": [
        {
          "name": "_value",
          "type": "uint256"
        },
        {
          "name": "_token",
          "type": "address"
        },
        {
          "name": "_minimumFee",
          "type": "uint256"
        },
        {
          "name": "_data",
          "type": "string"
        },
        {
          "name": "_stakeReleaseTime",
          "type": "uint256"
        },
        {
          "name": "_arbiter",
          "type": "address"
        }
      ],
      "name": "createDelphiStake",
      "outputs": [],
      "payable": false,
      "stateMutability": "nonpayable",
      "type": "function"
    },
    {
      "constant": true,
      "inputs": [],
      "name": "getNumStakes",
      "outputs": [
        {
          "name": "",
          "type": "uint256"
        }
      ],
      "payable": false,
      "stateMutability": "view",
      "type": "function"
    }
  ],
  "bytecode": "0x608060405234801561001057600080fd5b506040516020806109f38339810180604052810190808051906020019092919050505080600160006101000a81548173ffffffffffffffffffffffffffffffffffffffff021916908373ffffffffffffffffffffffffffffffffffffffff1602179055505061096f806100846000396000f300608060405260043610610061576000357c0100000000000000000000000000000000000000000000000000000000900463ffffffff168062f4c40a1461006657806324df90ab14610091578063a619486e14610158578063d5a44f86146101af575b600080fd5b34801561007257600080fd5b5061007b61021c565b6040518082815260200191505060405180910390f35b34801561009d57600080fd5b5061015660048036038101908080359060200190929190803573ffffffffffffffffffffffffffffffffffffffff16906020019092919080359060200190929190803590602001908201803590602001908080601f016020809104026020016040519081016040528093929190818152602001838380828437820191505050505050919291929080359060200190929190803573ffffffffffffffffffffffffffffffffffffffff169060200190929190505050610228565b005b34801561016457600080fd5b5061016d6107b7565b604051808273ffffffffffffffffffffffffffffffffffffffff1673ffffffffffffffffffffffffffffffffffffffff16815260200191505060405180910390f35b3480156101bb57600080fd5b506101da600480360381019080803590602001909291905050506107dd565b604051808273ffffffffffffffffffffffffffffffffffffffff1673ffffffffffffffffffffffffffffffffffffffff16815260200191505060405180910390f35b60008080549050905090565b60008573ffffffffffffffffffffffffffffffffffffffff166323b872dd33308a6040518463ffffffff167c0100000000000000000000000000000000000000000000000000000000028152600401808473ffffffffffffffffffffffffffffffffffffffff1673ffffffffffffffffffffffffffffffffffffffff1681526020018373ffffffffffffffffffffffffffffffffffffffff1673ffffffffffffffffffffffffffffffffffffffff1681526020018281526020019350505050602060405180830381600087803b15801561030157600080fd5b505af1158015610315573d6000803e3d6000fd5b505050506040513d602081101561032b57600080fd5b8101908080519060200190929190505050151561034757600080fd5b600160009054906101000a900473ffffffffffffffffffffffffffffffffffffffff1661037261081b565b808273ffffffffffffffffffffffffffffffffffffffff1673ffffffffffffffffffffffffffffffffffffffff168152602001915050604051809103906000f0801580156103c4573d6000803e3d6000fd5b50905060008190806001815401808255809150509060018203906000526020600020016000909192909190916101000a81548173ffffffffffffffffffffffffffffffffffffffff021916908373ffffffffffffffffffffffffffffffffffffffff160217905550508573ffffffffffffffffffffffffffffffffffffffff1663095ea7b3600060016000805490500381548110151561046057fe5b9060005260206000200160009054906101000a900473ffffffffffffffffffffffffffffffffffffffff16896040518363ffffffff167c0100000000000000000000000000000000000000000000000000000000028152600401808373ffffffffffffffffffffffffffffffffffffffff1673ffffffffffffffffffffffffffffffffffffffff16815260200182815260200192505050602060405180830381600087803b15801561051157600080fd5b505af1158015610525573d6000803e3d6000fd5b505050506040513d602081101561053b57600080fd5b810190808051906020019092919050505050600060016000805490500381548110151561056457fe5b9060005260206000200160009054906101000a900473ffffffffffffffffffffffffffffffffffffffff1673ffffffffffffffffffffffffffffffffffffffff1663b6298d458888888888886040518763ffffffff167c0100000000000000000000000000000000000000000000000000000000028152600401808781526020018673ffffffffffffffffffffffffffffffffffffffff1673ffffffffffffffffffffffffffffffffffffffff168152602001858152602001806020018481526020018373ffffffffffffffffffffffffffffffffffffffff1673ffffffffffffffffffffffffffffffffffffffff168152602001828103825285818151815260200191508051906020019080838360005b83811015610691578082015181840152602081019050610676565b50505050905090810190601f1680156106be5780820380516001836020036101000a031916815260200191505b50975050505050505050600060405180830381600087803b1580156106e257600080fd5b505af11580156106f6573d6000803e3d6000fd5b505050507f55a2fda8c395c2c0b28705dc59d4f0feac9c7bc0898802876460e51bbc90095e600160008054905003600060016000805490500381548110151561073b57fe5b9060005260206000200160009054906101000a900473ffffffffffffffffffffffffffffffffffffffff16604051808381526020018273ffffffffffffffffffffffffffffffffffffffff1673ffffffffffffffffffffffffffffffffffffffff1681526020019250505060405180910390a150505050505050565b600160009054906101000a900473ffffffffffffffffffffffffffffffffffffffff1681565b6000818154811015156107ec57fe5b906000526020600020016000915054906101000a900473ffffffffffffffffffffffffffffffffffffffff1681565b6040516101188061082c833901905600608060405234801561001057600080fd5b506040516020806101188339810180604052810190808051906020019092919050505060008173ffffffffffffffffffffffffffffffffffffffff161415151561005957600080fd5b806000806101000a81548173ffffffffffffffffffffffffffffffffffffffff021916908373ffffffffffffffffffffffffffffffffffffffff160217905550506070806100a86000396000f300608060405273ffffffffffffffffffffffffffffffffffffffff60005416366000803760008036600084600019f43d6000803e8060008114603f573d6000f35b3d6000fd00a165627a7a72305820048f62917428e995b48c7b2ba18475475eca20dbfd0463de62f05c433cc9994f0029a165627a7a72305820a8044f533abc9c82ba1cdf163852db378c62ad8986db1ee08bb7506b668812f60029",
  "source": "pragma solidity ^0.4.18;\nimport \"tokens/eip20/EIP20.sol\";\nimport \"./inherited/Proxy.sol\";\nimport \"./DelphiStake.sol\";\n\ncontract DelphiStakeFactory {\n\n  event StakeCreated(uint _stakeId, address _contractAddress);\n\n  DelphiStake[] public stakes;\n\n  address public masterCopy;\n\n\n  function DelphiStakeFactory(address _masterCopy){\n    masterCopy = _masterCopy;\n  }\n\n  function createDelphiStake(uint _value, EIP20 _token, uint _minimumFee, string _data, uint _stakeReleaseTime, address _arbiter)\n  public\n  {\n    // Revert if the specified value to stake cannot be transferred in\n    require(_token.transferFrom(msg.sender, this, _value));\n\n    address newStake = new Proxy(masterCopy);\n    stakes.push(DelphiStake(newStake));\n\n    _token.approve(stakes[stakes.length - 1], _value);\n\n    stakes[stakes.length - 1].initDelphiStake(_value, _token, _minimumFee, _data, _stakeReleaseTime, _arbiter);\n\n    StakeCreated(stakes.length - 1, stakes[stakes.length - 1]);\n  }\n\n  function getNumStakes()\n  public\n  constant\n  returns (uint)\n  {\n    return stakes.length;\n  }\n\n}\n",
  "sourcePath": "/usr/src/app/Delphi/contracts/DelphiStakeFactory.sol",
  "compiler": {
    "name": "solc",
    "version": "0.4.23+commit.124ca40d.Emscripten.clang"
  },
  "schemaVersion": "2.0.0",
  "updatedAt": "2018-05-20T01:50:43.477Z"
}