{
  "contractName": "DelphiStake",
  "abi": [
    {
      "constant": true,
      "inputs": [],
      "name": "stakeReleaseTime",
      "outputs": [
        {
          "name": "",
          "type": "uint256"
        }
      ],
      "payable": false,
      "stateMutability": "view",
      "type": "function"
    },
    {
      "constant": true,
      "inputs": [],
      "name": "minimumFee",
      "outputs": [
        {
          "name": "",
          "type": "uint256"
        }
      ],
      "payable": false,
      "stateMutability": "view",
      "type": "function"
    },
    {
      "constant": true,
      "inputs": [],
      "name": "claimableStake",
      "outputs": [
        {
          "name": "",
          "type": "uint256"
        }
      ],
      "payable": false,
      "stateMutability": "view",
      "type": "function"
    },
    {
      "constant": true,
      "inputs": [],
      "name": "staker",
      "outputs": [
        {
          "name": "",
          "type": "address"
        }
      ],
      "payable": false,
      "stateMutability": "view",
      "type": "function"
    },
    {
      "constant": true,
      "inputs": [],
      "name": "data",
      "outputs": [
        {
          "name": "",
          "type": "string"
        }
      ],
      "payable": false,
      "stateMutability": "view",
      "type": "function"
    },
    {
      "constant": true,
      "inputs": [],
      "name": "openClaims",
      "outputs": [
        {
          "name": "",
          "type": "uint256"
        }
      ],
      "payable": false,
      "stateMutability": "view",
      "type": "function"
    },
    {
      "constant": true,
      "inputs": [],
      "name": "masterCopy",
      "outputs": [
        {
          "name": "",
          "type": "address"
        }
      ],
      "payable": false,
      "stateMutability": "view",
      "type": "function"
    },
    {
      "constant": true,
      "inputs": [
        {
          "name": "",
          "type": "uint256"
        }
      ],
      "name": "claims",
      "outputs": [
        {
          "name": "claimant",
          "type": "address"
        },
        {
          "name": "amount",
          "type": "uint256"
        },
        {
          "name": "fee",
          "type": "uint256"
        },
        {
          "name": "surplusFee",
          "type": "uint256"
        },
        {
          "name": "data",
          "type": "string"
        },
        {
          "name": "ruling",
          "type": "uint256"
        },
        {
          "name": "ruled",
          "type": "bool"
        },
        {
          "name": "settlementFailed",
          "type": "bool"
        }
      ],
      "payable": false,
      "stateMutability": "view",
      "type": "function"
    },
    {
      "constant": true,
      "inputs": [
        {
          "name": "",
          "type": "address"
        }
      ],
      "name": "whitelistedDeadlines",
      "outputs": [
        {
          "name": "",
          "type": "uint256"
        }
      ],
      "payable": false,
      "stateMutability": "view",
      "type": "function"
    },
    {
      "constant": true,
      "inputs": [],
      "name": "token",
      "outputs": [
        {
          "name": "",
          "type": "address"
        }
      ],
      "payable": false,
      "stateMutability": "view",
      "type": "function"
    },
    {
      "constant": true,
      "inputs": [
        {
          "name": "",
          "type": "uint256"
        },
        {
          "name": "",
          "type": "uint256"
        }
      ],
      "name": "settlements",
      "outputs": [
        {
          "name": "amount",
          "type": "uint256"
        },
        {
          "name": "stakerAgrees",
          "type": "bool"
        },
        {
          "name": "claimantAgrees",
          "type": "bool"
        }
      ],
      "payable": false,
      "stateMutability": "view",
      "type": "function"
    },
    {
      "constant": true,
      "inputs": [],
      "name": "arbiter",
      "outputs": [
        {
          "name": "",
          "type": "address"
        }
      ],
      "payable": false,
      "stateMutability": "view",
      "type": "function"
    },
    {
      "anonymous": false,
      "inputs": [
        {
          "indexed": false,
          "name": "_claimant",
          "type": "address"
        }
      ],
      "name": "ClaimantWhitelisted",
      "type": "event"
    },
    {
      "anonymous": false,
      "inputs": [
        {
          "indexed": false,
          "name": "_claimant",
          "type": "address"
        },
        {
          "indexed": false,
          "name": "_claimId",
          "type": "uint256"
        }
      ],
      "name": "ClaimOpened",
      "type": "event"
    },
    {
      "anonymous": false,
      "inputs": [
        {
          "indexed": false,
          "name": "_increasedBy",
          "type": "address"
        },
        {
          "indexed": false,
          "name": "_claimId",
          "type": "uint256"
        },
        {
          "indexed": false,
          "name": "_amount",
          "type": "uint256"
        }
      ],
      "name": "FeeIncreased",
      "type": "event"
    },
    {
      "anonymous": false,
      "inputs": [
        {
          "indexed": false,
          "name": "_proposedBy",
          "type": "address"
        },
        {
          "indexed": false,
          "name": "_claimId",
          "type": "uint256"
        },
        {
          "indexed": false,
          "name": "_settlementId",
          "type": "uint256"
        }
      ],
      "name": "SettlementProposed",
      "type": "event"
    },
    {
      "anonymous": false,
      "inputs": [
        {
          "indexed": false,
          "name": "_acceptedBy",
          "type": "address"
        },
        {
          "indexed": false,
          "name": "_claimId",
          "type": "uint256"
        },
        {
          "indexed": false,
          "name": "_settlementId",
          "type": "uint256"
        }
      ],
      "name": "SettlementAccepted",
      "type": "event"
    },
    {
      "anonymous": false,
      "inputs": [
        {
          "indexed": false,
          "name": "_failedBy",
          "type": "address"
        },
        {
          "indexed": false,
          "name": "_claimId",
          "type": "uint256"
        }
      ],
      "name": "SettlementFailed",
      "type": "event"
    },
    {
      "anonymous": false,
      "inputs": [
        {
          "indexed": false,
          "name": "_claimId",
          "type": "uint256"
        }
      ],
      "name": "ClaimRuled",
      "type": "event"
    },
    {
      "anonymous": false,
      "inputs": [
        {
          "indexed": false,
          "name": "_stakeReleaseTime",
          "type": "uint256"
        }
      ],
      "name": "ReleaseTimeIncreased",
      "type": "event"
    },
    {
      "anonymous": false,
      "inputs": [],
      "name": "StakeWithdrawn",
      "type": "event"
    },
    {
      "anonymous": false,
      "inputs": [
        {
          "indexed": false,
          "name": "_increasedBy",
          "type": "address"
        },
        {
          "indexed": false,
          "name": "_value",
          "type": "uint256"
        }
      ],
      "name": "StakeIncreased",
      "type": "event"
    },
    {
      "anonymous": false,
      "inputs": [
        {
          "indexed": false,
          "name": "staker",
          "type": "address"
        },
        {
          "indexed": false,
          "name": "value",
          "type": "uint256"
        },
        {
          "indexed": false,
          "name": "_minimumFee",
          "type": "uint256"
        },
        {
          "indexed": false,
          "name": "data",
          "type": "string"
        },
        {
          "indexed": false,
          "name": "stakeReleaseTime",
          "type": "uint256"
        },
        {
          "indexed": false,
          "name": "arbiter",
          "type": "address"
        }
      ],
      "name": "StakeCreated",
      "type": "event"
    },
    {
      "constant": false,
      "inputs": [
        {
          "name": "_value",
          "type": "uint256"
        },
        {
          "name": "_token",
          "type": "address"
        },
        {
          "name": "_minimumFee",
          "type": "uint256"
        },
        {
          "name": "_data",
          "type": "string"
        },
        {
          "name": "_stakeReleaseTime",
          "type": "uint256"
        },
        {
          "name": "_arbiter",
          "type": "address"
        }
      ],
      "name": "initDelphiStake",
      "outputs": [],
      "payable": false,
      "stateMutability": "nonpayable",
      "type": "function"
    },
    {
      "constant": false,
      "inputs": [
        {
          "name": "_claimant",
          "type": "address"
        },
        {
          "name": "_deadline",
          "type": "uint256"
        }
      ],
      "name": "whitelistClaimant",
      "outputs": [],
      "payable": false,
      "stateMutability": "nonpayable",
      "type": "function"
    },
    {
      "constant": false,
      "inputs": [
        {
          "name": "_claimant",
          "type": "address"
        },
        {
          "name": "_amount",
          "type": "uint256"
        },
        {
          "name": "_fee",
          "type": "uint256"
        },
        {
          "name": "_data",
          "type": "string"
        }
      ],
      "name": "openClaim",
      "outputs": [],
      "payable": false,
      "stateMutability": "nonpayable",
      "type": "function"
    },
    {
      "constant": false,
      "inputs": [
        {
          "name": "_claimant",
          "type": "address"
        },
        {
          "name": "_amount",
          "type": "uint256"
        },
        {
          "name": "_fee",
          "type": "uint256"
        },
        {
          "name": "_data",
          "type": "string"
        }
      ],
      "name": "openClaimWithoutSettlement",
      "outputs": [],
      "payable": false,
      "stateMutability": "nonpayable",
      "type": "function"
    },
    {
      "constant": false,
      "inputs": [
        {
          "name": "_claimId",
          "type": "uint256"
        },
        {
          "name": "_amount",
          "type": "uint256"
        }
      ],
      "name": "increaseClaimFee",
      "outputs": [],
      "payable": false,
      "stateMutability": "nonpayable",
      "type": "function"
    },
    {
      "constant": false,
      "inputs": [
        {
          "name": "_claimId",
          "type": "uint256"
        },
        {
          "name": "_amount",
          "type": "uint256"
        }
      ],
      "name": "proposeSettlement",
      "outputs": [],
      "payable": false,
      "stateMutability": "nonpayable",
      "type": "function"
    },
    {
      "constant": false,
      "inputs": [
        {
          "name": "_claimId",
          "type": "uint256"
        },
        {
          "name": "_settlementId",
          "type": "uint256"
        }
      ],
      "name": "acceptSettlement",
      "outputs": [],
      "payable": false,
      "stateMutability": "nonpayable",
      "type": "function"
    },
    {
      "constant": false,
      "inputs": [
        {
          "name": "_claimId",
          "type": "uint256"
        }
      ],
      "name": "settlementFailed",
      "outputs": [],
      "payable": false,
      "stateMutability": "nonpayable",
      "type": "function"
    },
    {
      "constant": false,
      "inputs": [
        {
          "name": "_claimId",
          "type": "uint256"
        },
        {
          "name": "_ruling",
          "type": "uint256"
        }
      ],
      "name": "ruleOnClaim",
      "outputs": [],
      "payable": false,
      "stateMutability": "nonpayable",
      "type": "function"
    },
    {
      "constant": false,
      "inputs": [
        {
          "name": "_value",
          "type": "uint256"
        }
      ],
      "name": "increaseStake",
      "outputs": [],
      "payable": false,
      "stateMutability": "nonpayable",
      "type": "function"
    },
    {
      "constant": false,
      "inputs": [
        {
          "name": "_stakeReleaseTime",
          "type": "uint256"
        }
      ],
      "name": "extendStakeReleaseTime",
      "outputs": [],
      "payable": false,
      "stateMutability": "nonpayable",
      "type": "function"
    },
    {
      "constant": false,
      "inputs": [],
      "name": "withdrawStake",
      "outputs": [],
      "payable": false,
      "stateMutability": "nonpayable",
      "type": "function"
    },
    {
      "constant": true,
      "inputs": [],
      "name": "getNumClaims",
      "outputs": [
        {
          "name": "",
          "type": "uint256"
        }
      ],
      "payable": false,
      "stateMutability": "view",
      "type": "function"
    },
    {
      "constant": true,
      "inputs": [
        {
          "name": "_claimId",
          "type": "uint256"
        }
      ],
      "name": "getTotalFeeForClaim",
      "outputs": [
        {
          "name": "",
          "type": "uint256"
        }
      ],
      "payable": false,
      "stateMutability": "view",
      "type": "function"
    }
  ],
  "bytecode": "0x608060405234801561001057600080fd5b5061372a806100206000396000f300608060405260043610610154576000357c0100000000000000000000000000000000000000000000000000000000900463ffffffff168063105e3fe41461015957806319902986146101845780631a7626e7146101af578063243063a4146101da5780633eec4d98146102055780634f4e112d146102525780635b55ef54146102935780635ebaf1db146102ca57806373d4a13a146103215780637a6ae541146103b15780637d30d561146103dc57806396cf2a79146104095780639b4b973d146104405780639f10ccfd14610477578063a619486e14610514578063a888c2cd1461056b578063b2b9679214610676578063b6298d45146106ad578063bed9d86114610774578063d90a1c001461078b578063deaf0497146107b8578063eedad66b1461080f578063f8df09901461083c578063fc0c546a146108d9578063fcdfa34714610930578063fe25e00a14610991575b600080fd5b34801561016557600080fd5b5061016e6109e8565b6040518082815260200191505060405180910390f35b34801561019057600080fd5b506101996109ee565b6040518082815260200191505060405180910390f35b3480156101bb57600080fd5b506101c46109fb565b6040518082815260200191505060405180910390f35b3480156101e657600080fd5b506101ef610a01565b6040518082815260200191505060405180910390f35b34801561021157600080fd5b50610250600480360381019080803573ffffffffffffffffffffffffffffffffffffffff16906020019092919080359060200190929190505050610a07565b005b34801561025e57600080fd5b5061027d60048036038101908080359060200190929190505050610b5c565b6040518082815260200191505060405180910390f35b34801561029f57600080fd5b506102c86004803603810190808035906020019092919080359060200190929190505050610b91565b005b3480156102d657600080fd5b506102df610e01565b604051808273ffffffffffffffffffffffffffffffffffffffff1673ffffffffffffffffffffffffffffffffffffffff16815260200191505060405180910390f35b34801561032d57600080fd5b50610336610e27565b6040518080602001828103825283818151815260200191508051906020019080838360005b8381101561037657808201518184015260208101905061035b565b50505050905090810190601f1680156103a35780820380516001836020036101000a031916815260200191505b509250505060405180910390f35b3480156103bd57600080fd5b506103c6610ec5565b6040518082815260200191505060405180910390f35b3480156103e857600080fd5b5061040760048036038101908080359060200190929190505050610ecb565b005b34801561041557600080fd5b5061043e6004803603810190808035906020019092919080359060200190929190505050611097565b005b34801561044c57600080fd5b5061047560048036038101908080359060200190929190803590602001909291905050506119b6565b005b34801561048357600080fd5b50610512600480360381019080803573ffffffffffffffffffffffffffffffffffffffff1690602001909291908035906020019092919080359060200190929190803590602001908201803590602001908080601f0160208091040260200160405190810160405280939291908181526020018383808284378201915050505050509192919290505050611e5a565b005b34801561052057600080fd5b506105296122bc565b604051808273ffffffffffffffffffffffffffffffffffffffff1673ffffffffffffffffffffffffffffffffffffffff16815260200191505060405180910390f35b34801561057757600080fd5b50610596600480360381019080803590602001909291905050506122e1565b604051808973ffffffffffffffffffffffffffffffffffffffff1673ffffffffffffffffffffffffffffffffffffffff168152602001888152602001878152602001868152602001806020018581526020018415151515815260200183151515158152602001828103825286818151815260200191508051906020019080838360005b83811015610634578082015181840152602081019050610619565b50505050905090810190601f1680156106615780820380516001836020036101000a031916815260200191505b50995050505050505050505060405180910390f35b34801561068257600080fd5b506106ab600480360381019080803590602001909291908035906020019092919050505061240a565b005b3480156106b957600080fd5b5061077260048036038101908080359060200190929190803573ffffffffffffffffffffffffffffffffffffffff16906020019092919080359060200190929190803590602001908201803590602001908080601f016020809104026020016040519081016040528093929190818152602001838380828437820191505050505050919291929080359060200190929190803573ffffffffffffffffffffffffffffffffffffffff1690602001909291905050506127c6565b005b34801561078057600080fd5b50610789612c05565b005b34801561079757600080fd5b506107b660048036038101908080359060200190929190505050612ded565b005b3480156107c457600080fd5b506107f9600480360381019080803573ffffffffffffffffffffffffffffffffffffffff169060200190929190505050612e9a565b6040518082815260200191505060405180910390f35b34801561081b57600080fd5b5061083a60048036038101908080359060200190929190505050612eb2565b005b34801561084857600080fd5b506108d7600480360381019080803573ffffffffffffffffffffffffffffffffffffffff1690602001909291908035906020019092919080359060200190929190803590602001908201803590602001908080601f01602080910402602001604051908101604052809392919081815260200183838082843782019150505050505091929192905050506130cb565b005b3480156108e557600080fd5b506108ee61352d565b604051808273ffffffffffffffffffffffffffffffffffffffff1673ffffffffffffffffffffffffffffffffffffffff16815260200191505060405180910390f35b34801561093c57600080fd5b506109656004803603810190808035906020019092919080359060200190929190505050613553565b604051808481526020018315151515815260200182151515158152602001935050505060405180910390f35b34801561099d57600080fd5b506109a66135b3565b604051808273ffffffffffffffffffffffffffffffffffffffff1673ffffffffffffffffffffffffffffffffffffffff16815260200191505060405180910390f35b60075481565b6000600880549050905090565b60015481565b60025481565b600560009054906101000a900473ffffffffffffffffffffffffffffffffffffffff1673ffffffffffffffffffffffffffffffffffffffff163373ffffffffffffffffffffffffffffffffffffffff16141515610a6357600080fd5b600b60008373ffffffffffffffffffffffffffffffffffffffff1673ffffffffffffffffffffffffffffffffffffffff168152602001908152602001600020548110151515610ab157600080fd5b80600b60008473ffffffffffffffffffffffffffffffffffffffff1673ffffffffffffffffffffffffffffffffffffffff168152602001908152602001600020819055507f648f92fef051e7946a669e8bf4839dc07bfe3c24417cbf8e5d098146fb471e7d82604051808273ffffffffffffffffffffffffffffffffffffffff1673ffffffffffffffffffffffffffffffffffffffff16815260200191505060405180910390a15050565b600080600883815481101515610b6e57fe5b906000526020600020906007020190508060030154816002015401915050919050565b8160088054905081101515610ba557600080fd5b82600881815481101515610bb557fe5b906000526020600020906007020160060160009054906101000a900460ff16151515610be057600080fd5b83600881815481101515610bf057fe5b906000526020600020906007020160060160019054906101000a900460ff161515610c1a57600080fd5b600360009054906101000a900473ffffffffffffffffffffffffffffffffffffffff1673ffffffffffffffffffffffffffffffffffffffff166323b872dd3330876040518463ffffffff167c0100000000000000000000000000000000000000000000000000000000028152600401808473ffffffffffffffffffffffffffffffffffffffff1673ffffffffffffffffffffffffffffffffffffffff1681526020018373ffffffffffffffffffffffffffffffffffffffff1673ffffffffffffffffffffffffffffffffffffffff1681526020018281526020019350505050602060405180830381600087803b158015610d1357600080fd5b505af1158015610d27573d6000803e3d6000fd5b505050506040513d6020811015610d3d57600080fd5b81019080805190602001909291905050501515610d5957600080fd5b83600886815481101515610d6957fe5b9060005260206000209060070201600301600082825401925050819055507f6b4dc782cccdba723047fe25076ad01e89ea7ad5264b25360bdfcdb9e3bb43d5338686604051808473ffffffffffffffffffffffffffffffffffffffff1673ffffffffffffffffffffffffffffffffffffffff168152602001838152602001828152602001935050505060405180910390a15050505050565b600560009054906101000a900473ffffffffffffffffffffffffffffffffffffffff1681565b60048054600181600116156101000203166002900480601f016020809104026020016040519081016040528092919081815260200182805460018160011615610100020316600290048015610ebd5780601f10610e9257610100808354040283529160200191610ebd565b820191906000526020600020905b815481529060010190602001808311610ea057829003601f168201915b505050505081565b60095481565b8060088054905081101515610edf57600080fd5b81600560009054906101000a900473ffffffffffffffffffffffffffffffffffffffff1673ffffffffffffffffffffffffffffffffffffffff163373ffffffffffffffffffffffffffffffffffffffff161480610fa75750600881815481101515610f4657fe5b906000526020600020906007020160000160009054906101000a900473ffffffffffffffffffffffffffffffffffffffff1673ffffffffffffffffffffffffffffffffffffffff163373ffffffffffffffffffffffffffffffffffffffff16145b1515610fb257600080fd5b82600881815481101515610fc257fe5b906000526020600020906007020160060160019054906101000a900460ff16151515610fed57600080fd5b6001600885815481101515610ffe57fe5b906000526020600020906007020160060160016101000a81548160ff0219169083151502179055507f4a791ea6468cdbbc2476c5843a7d3417a6323d06fe8f3637f581c58ee09d3d423385604051808373ffffffffffffffffffffffffffffffffffffffff1673ffffffffffffffffffffffffffffffffffffffff1681526020018281526020019250505060405180910390a150505050565b6000600660009054906101000a900473ffffffffffffffffffffffffffffffffffffffff1673ffffffffffffffffffffffffffffffffffffffff163373ffffffffffffffffffffffffffffffffffffffff161415156110f557600080fd5b826008805490508110151561110957600080fd5b8360088181548110151561111957fe5b906000526020600020906007020160060160009054906101000a900460ff1615151561114457600080fd5b8460088181548110151561115457fe5b906000526020600020906007020160060160019054906101000a900460ff16151561117e57600080fd5b60088681548110151561118d57fe5b9060005260206000209060070201935060018460060160006101000a81548160ff021916908315150217905550848460050181905550600085141561144157600360009054906101000a900473ffffffffffffffffffffffffffffffffffffffff1673ffffffffffffffffffffffffffffffffffffffff1663a9059cbb600660009054906101000a900473ffffffffffffffffffffffffffffffffffffffff1686600301548760020154016040518363ffffffff167c0100000000000000000000000000000000000000000000000000000000028152600401808373ffffffffffffffffffffffffffffffffffffffff1673ffffffffffffffffffffffffffffffffffffffff16815260200182815260200192505050602060405180830381600087803b1580156112bd57600080fd5b505af11580156112d1573d6000803e3d6000fd5b505050506040513d60208110156112e757600080fd5b8101908080519060200190929190505050151561130357600080fd5b600360009054906101000a900473ffffffffffffffffffffffffffffffffffffffff1673ffffffffffffffffffffffffffffffffffffffff1663a9059cbb8560000160009054906101000a900473ffffffffffffffffffffffffffffffffffffffff1686600201548760010154016040518363ffffffff167c0100000000000000000000000000000000000000000000000000000000028152600401808373ffffffffffffffffffffffffffffffffffffffff1673ffffffffffffffffffffffffffffffffffffffff16815260200182815260200192505050602060405180830381600087803b1580156113f657600080fd5b505af115801561140a573d6000803e3d6000fd5b505050506040513d602081101561142057600080fd5b8101908080519060200190929190505050151561143c57600080fd5b611964565b60018514156115a0578360020154846001015401600260008282540192505081905550600360009054906101000a900473ffffffffffffffffffffffffffffffffffffffff1673ffffffffffffffffffffffffffffffffffffffff1663a9059cbb600660009054906101000a900473ffffffffffffffffffffffffffffffffffffffff1686600301548760020154016040518363ffffffff167c0100000000000000000000000000000000000000000000000000000000028152600401808373ffffffffffffffffffffffffffffffffffffffff1673ffffffffffffffffffffffffffffffffffffffff16815260200182815260200192505050602060405180830381600087803b15801561155557600080fd5b505af1158015611569573d6000803e3d6000fd5b505050506040513d602081101561157f57600080fd5b8101908080519060200190929190505050151561159b57600080fd5b611963565b60028514156117fb57600360009054906101000a900473ffffffffffffffffffffffffffffffffffffffff1673ffffffffffffffffffffffffffffffffffffffff1663a9059cbb600660009054906101000a900473ffffffffffffffffffffffffffffffffffffffff1686600301548760020154886002015401016040518363ffffffff167c0100000000000000000000000000000000000000000000000000000000028152600401808373ffffffffffffffffffffffffffffffffffffffff1673ffffffffffffffffffffffffffffffffffffffff16815260200182815260200192505050602060405180830381600087803b1580156116a057600080fd5b505af11580156116b4573d6000803e3d6000fd5b505050506040513d60208110156116ca57600080fd5b810190808051906020019092919050505015156116e657600080fd5b600360009054906101000a900473ffffffffffffffffffffffffffffffffffffffff1673ffffffffffffffffffffffffffffffffffffffff1663a9059cbb600086600101546040518363ffffffff167c0100000000000000000000000000000000000000000000000000000000028152600401808373ffffffffffffffffffffffffffffffffffffffff1673ffffffffffffffffffffffffffffffffffffffff16815260200182815260200192505050602060405180830381600087803b1580156117b057600080fd5b505af11580156117c4573d6000803e3d6000fd5b505050506040513d60208110156117da57600080fd5b810190808051906020019092919050505015156117f657600080fd5b611962565b600385141561195c578360020154846001015401600260008282540192505081905550600360009054906101000a900473ffffffffffffffffffffffffffffffffffffffff1673ffffffffffffffffffffffffffffffffffffffff1663a9059cbb8560000160009054906101000a900473ffffffffffffffffffffffffffffffffffffffff1686600201548760010154016040518363ffffffff167c0100000000000000000000000000000000000000000000000000000000028152600401808373ffffffffffffffffffffffffffffffffffffffff1673ffffffffffffffffffffffffffffffffffffffff16815260200182815260200192505050602060405180830381600087803b15801561191157600080fd5b505af1158015611925573d6000803e3d6000fd5b505050506040513d602081101561193b57600080fd5b8101908080519060200190929190505050151561195757600080fd5b611961565b600080fd5b5b5b5b600960008154809291906001900391905055507f93b2cf76c3fd2e469042f8b38efad3758e54369f5146d4df3b6519e4f93c956a866040518082815260200191505060405180910390a1505050505050565b60008083600880549050811015156119cd57600080fd5b8484600a600083815260200190815260200160002080549050811015156119f357600080fd5b86600560009054906101000a900473ffffffffffffffffffffffffffffffffffffffff1673ffffffffffffffffffffffffffffffffffffffff163373ffffffffffffffffffffffffffffffffffffffff161480611abb5750600881815481101515611a5a57fe5b906000526020600020906007020160000160009054906101000a900473ffffffffffffffffffffffffffffffffffffffff1673ffffffffffffffffffffffffffffffffffffffff163373ffffffffffffffffffffffffffffffffffffffff16145b1515611ac657600080fd5b87600881815481101515611ad657fe5b906000526020600020906007020160060160019054906101000a900460ff16151515611b0157600080fd5b600a60008a815260200190815260200160002088815481101515611b2157fe5b90600052602060002090600202019650600889815481101515611b4057fe5b90600052602060002090600702019550600560009054906101000a900473ffffffffffffffffffffffffffffffffffffffff1673ffffffffffffffffffffffffffffffffffffffff163373ffffffffffffffffffffffffffffffffffffffff161415611bc85760018760010160006101000a81548160ff021916908315150217905550611be6565b60018760010160016101000a81548160ff0219169083151502179055505b8660010160019054906101000a900460ff168015611c1257508660010160009054906101000a900460ff165b8015611c2d57508560060160019054906101000a900460ff16155b8015611c4857508560060160009054906101000a900460ff16155b1515611c5357600080fd5b60018660060160006101000a81548160ff021916908315150217905550866000015486600201548760010154010360026000828254019250508190555060096000815480929190600190039190505550600360009054906101000a900473ffffffffffffffffffffffffffffffffffffffff1673ffffffffffffffffffffffffffffffffffffffff1663a9059cbb8760000160009054906101000a900473ffffffffffffffffffffffffffffffffffffffff1688600201548a60000154016040518363ffffffff167c0100000000000000000000000000000000000000000000000000000000028152600401808373ffffffffffffffffffffffffffffffffffffffff1673ffffffffffffffffffffffffffffffffffffffff16815260200182815260200192505050602060405180830381600087803b158015611d9657600080fd5b505af1158015611daa573d6000803e3d6000fd5b505050506040513d6020811015611dc057600080fd5b81019080805190602001909291905050501515611ddc57600080fd5b7f88e008c54828779944317612bf74ec51d51767114d55f6132852669fa96dadbc338a8a604051808473ffffffffffffffffffffffffffffffffffffffff1673ffffffffffffffffffffffffffffffffffffffff168152602001838152602001828152602001935050505060405180910390a1505050505050505050565b600560009054906101000a900473ffffffffffffffffffffffffffffffffffffffff1673ffffffffffffffffffffffffffffffffffffffff163373ffffffffffffffffffffffffffffffffffffffff1614158015611f065750600660009054906101000a900473ffffffffffffffffffffffffffffffffffffffff1673ffffffffffffffffffffffffffffffffffffffff163373ffffffffffffffffffffffffffffffffffffffff1614155b1515611f1157600080fd5b828280820160025410151515611f2657600080fd5b8542600b60008373ffffffffffffffffffffffffffffffffffffffff1673ffffffffffffffffffffffffffffffffffffffff1681526020019081526020016000205410151515611f7557600080fd5b846001548110151515611f8757600080fd5b600360009054906101000a900473ffffffffffffffffffffffffffffffffffffffff1673ffffffffffffffffffffffffffffffffffffffff166323b872dd8930896040518463ffffffff167c0100000000000000000000000000000000000000000000000000000000028152600401808473ffffffffffffffffffffffffffffffffffffffff1673ffffffffffffffffffffffffffffffffffffffff1681526020018373ffffffffffffffffffffffffffffffffffffffff1673ffffffffffffffffffffffffffffffffffffffff1681526020018281526020019350505050602060405180830381600087803b15801561208057600080fd5b505af1158015612094573d6000803e3d6000fd5b505050506040513d60208110156120aa57600080fd5b810190808051906020019092919050505015156120c657600080fd5b6008610100604051908101604052808a73ffffffffffffffffffffffffffffffffffffffff1681526020018981526020018881526020016000815260200187815260200160008152602001600015158152602001600115158152509080600181540180825580915050906001820390600052602060002090600702016000909192909190915060008201518160000160006101000a81548173ffffffffffffffffffffffffffffffffffffffff021916908373ffffffffffffffffffffffffffffffffffffffff16021790555060208201518160010155604082015181600201556060820151816003015560808201518160040190805190602001906121cd9291906135d9565b5060a0820151816005015560c08201518160060160006101000a81548160ff02191690831515021790555060e08201518160060160016101000a81548160ff0219169083151502179055505050506009600081548092919060010191905055508587016002600082825403925050819055507fbc3c999363eb8c947290990a79dd7e660b38135845d30bc52d23810bb5ac698c33600160088054905003604051808373ffffffffffffffffffffffffffffffffffffffff1673ffffffffffffffffffffffffffffffffffffffff1681526020018281526020019250505060405180910390a15050505050505050565b6000809054906101000a900473ffffffffffffffffffffffffffffffffffffffff1681565b6008818154811015156122f057fe5b90600052602060002090600702016000915090508060000160009054906101000a900473ffffffffffffffffffffffffffffffffffffffff1690806001015490806002015490806003015490806004018054600181600116156101000203166002900480601f0160208091040260200160405190810160405280929190818152602001828054600181600116156101000203166002900480156123d45780601f106123a9576101008083540402835291602001916123d4565b820191906000526020600020905b8154815290600101906020018083116123b757829003601f168201915b5050505050908060050154908060060160009054906101000a900460ff16908060060160019054906101000a900460ff16905088565b816008805490508110151561241e57600080fd5b82600560009054906101000a900473ffffffffffffffffffffffffffffffffffffffff1673ffffffffffffffffffffffffffffffffffffffff163373ffffffffffffffffffffffffffffffffffffffff1614806124e6575060088181548110151561248557fe5b906000526020600020906007020160000160009054906101000a900473ffffffffffffffffffffffffffffffffffffffff1673ffffffffffffffffffffffffffffffffffffffff163373ffffffffffffffffffffffffffffffffffffffff16145b15156124f157600080fd5b8360088181548110151561250157fe5b906000526020600020906007020160060160019054906101000a900460ff1615151561252c57600080fd5b8360088681548110151561253c57fe5b90600052602060002090600702016002015460088781548110151561255d57fe5b906000526020600020906007020160010154011015151561257d57600080fd5b600560009054906101000a900473ffffffffffffffffffffffffffffffffffffffff1673ffffffffffffffffffffffffffffffffffffffff163373ffffffffffffffffffffffffffffffffffffffff16141561268557600a600086815260200190815260200160002060606040519081016040528086815260200160011515815260200160001515815250908060018154018082558091505090600182039060005260206000209060020201600090919290919091506000820151816000015560208201518160010160006101000a81548160ff02191690831515021790555060408201518160010160016101000a81548160ff021916908315150217905550505050612733565b600a600086815260200190815260200160002060606040519081016040528086815260200160001515815260200160011515815250908060018154018082558091505090600182039060005260206000209060020201600090919290919091506000820151816000015560208201518160010160006101000a81548160ff02191690831515021790555060408201518160010160016101000a81548160ff0219169083151502179055505050505b7ffefb25c55880e196006df381d9e65cb6a7f4d5457e50124eef4b9d5b4354bc0e33866001600a60008a81526020019081526020016000208054905003604051808473ffffffffffffffffffffffffffffffffffffffff1673ffffffffffffffffffffffffffffffffffffffff168152602001838152602001828152602001935050505060405180910390a15050505050565b42821115156127d457600080fd5b600073ffffffffffffffffffffffffffffffffffffffff16600360009054906101000a900473ffffffffffffffffffffffffffffffffffffffff1673ffffffffffffffffffffffffffffffffffffffff1614151561283157600080fd5b600073ffffffffffffffffffffffffffffffffffffffff168173ffffffffffffffffffffffffffffffffffffffff161415151561286d57600080fd5b8473ffffffffffffffffffffffffffffffffffffffff166323b872dd3330896040518463ffffffff167c0100000000000000000000000000000000000000000000000000000000028152600401808473ffffffffffffffffffffffffffffffffffffffff1673ffffffffffffffffffffffffffffffffffffffff1681526020018373ffffffffffffffffffffffffffffffffffffffff1673ffffffffffffffffffffffffffffffffffffffff1681526020018281526020019350505050602060405180830381600087803b15801561294457600080fd5b505af1158015612958573d6000803e3d6000fd5b505050506040513d602081101561296e57600080fd5b8101908080519060200190929190505050151561298a57600080fd5b8560028190555084600360006101000a81548173ffffffffffffffffffffffffffffffffffffffff021916908373ffffffffffffffffffffffffffffffffffffffff1602179055508360018190555082600490805190602001906129ef929190613659565b508160078190555080600660006101000a81548173ffffffffffffffffffffffffffffffffffffffff021916908373ffffffffffffffffffffffffffffffffffffffff16021790555033600560006101000a81548173ffffffffffffffffffffffffffffffffffffffff021916908373ffffffffffffffffffffffffffffffffffffffff1602179055507fabe92932e7d439bb65d427fdc77363548b896e25172fa8f52c9ee7964649730a600560009054906101000a900473ffffffffffffffffffffffffffffffffffffffff166002546001546004600754600660009054906101000a900473ffffffffffffffffffffffffffffffffffffffff16604051808773ffffffffffffffffffffffffffffffffffffffff1673ffffffffffffffffffffffffffffffffffffffff168152602001868152602001858152602001806020018481526020018373ffffffffffffffffffffffffffffffffffffffff1673ffffffffffffffffffffffffffffffffffffffff168152602001828103825285818154600181600116156101000203166002900481526020019150805460018160011615610100020316600290048015612bea5780601f10612bbf57610100808354040283529160200191612bea565b820191906000526020600020905b815481529060010190602001808311612bcd57829003601f168201915b505097505050505050505060405180910390a1505050505050565b6000600560009054906101000a900473ffffffffffffffffffffffffffffffffffffffff1673ffffffffffffffffffffffffffffffffffffffff163373ffffffffffffffffffffffffffffffffffffffff16141515612c6357600080fd5b60075442111515612c7357600080fd5b6000600954141515612c8457600080fd5b60025490506000600281905550600360009054906101000a900473ffffffffffffffffffffffffffffffffffffffff1673ffffffffffffffffffffffffffffffffffffffff1663a9059cbb600560009054906101000a900473ffffffffffffffffffffffffffffffffffffffff16836040518363ffffffff167c0100000000000000000000000000000000000000000000000000000000028152600401808373ffffffffffffffffffffffffffffffffffffffff1673ffffffffffffffffffffffffffffffffffffffff16815260200182815260200192505050602060405180830381600087803b158015612d7857600080fd5b505af1158015612d8c573d6000803e3d6000fd5b505050506040513d6020811015612da257600080fd5b81019080805190602001909291905050501515612dbe57600080fd5b7f43a0cf0d0a48969b58f39c4ef52df638b444e2522d7e32d0364e107c7db2a95460405160405180910390a150565b600560009054906101000a900473ffffffffffffffffffffffffffffffffffffffff1673ffffffffffffffffffffffffffffffffffffffff163373ffffffffffffffffffffffffffffffffffffffff16141515612e4957600080fd5b60075481111515612e5957600080fd5b806007819055507f91ea522e5de2507a2d12093e3c43f7ed34c8b35a800fe1980c6e5f742fe939f3816040518082815260200191505060405180910390a150565b600b6020528060005260406000206000915090505481565b600560009054906101000a900473ffffffffffffffffffffffffffffffffffffffff1673ffffffffffffffffffffffffffffffffffffffff163373ffffffffffffffffffffffffffffffffffffffff16141515612f0e57600080fd5b600360009054906101000a900473ffffffffffffffffffffffffffffffffffffffff1673ffffffffffffffffffffffffffffffffffffffff166323b872dd3330846040518463ffffffff167c0100000000000000000000000000000000000000000000000000000000028152600401808473ffffffffffffffffffffffffffffffffffffffff1673ffffffffffffffffffffffffffffffffffffffff1681526020018373ffffffffffffffffffffffffffffffffffffffff1673ffffffffffffffffffffffffffffffffffffffff1681526020018281526020019350505050602060405180830381600087803b15801561300757600080fd5b505af115801561301b573d6000803e3d6000fd5b505050506040513d602081101561303157600080fd5b8101908080519060200190929190505050151561304d57600080fd5b806002600082825401925050819055507f8b0ed825817a2e696c9a931715af4609fc60e1701f09c89ee7645130e937eb2d3382604051808373ffffffffffffffffffffffffffffffffffffffff1673ffffffffffffffffffffffffffffffffffffffff1681526020018281526020019250505060405180910390a150565b600560009054906101000a900473ffffffffffffffffffffffffffffffffffffffff1673ffffffffffffffffffffffffffffffffffffffff163373ffffffffffffffffffffffffffffffffffffffff16141580156131775750600660009054906101000a900473ffffffffffffffffffffffffffffffffffffffff1673ffffffffffffffffffffffffffffffffffffffff163373ffffffffffffffffffffffffffffffffffffffff1614155b151561318257600080fd5b82828082016002541015151561319757600080fd5b8542600b60008373ffffffffffffffffffffffffffffffffffffffff1673ffffffffffffffffffffffffffffffffffffffff16815260200190815260200160002054101515156131e657600080fd5b8460015481101515156131f857600080fd5b600360009054906101000a900473ffffffffffffffffffffffffffffffffffffffff1673ffffffffffffffffffffffffffffffffffffffff166323b872dd8930896040518463ffffffff167c0100000000000000000000000000000000000000000000000000000000028152600401808473ffffffffffffffffffffffffffffffffffffffff1673ffffffffffffffffffffffffffffffffffffffff1681526020018373ffffffffffffffffffffffffffffffffffffffff1673ffffffffffffffffffffffffffffffffffffffff1681526020018281526020019350505050602060405180830381600087803b1580156132f157600080fd5b505af1158015613305573d6000803e3d6000fd5b505050506040513d602081101561331b57600080fd5b8101908080519060200190929190505050151561333757600080fd5b6008610100604051908101604052808a73ffffffffffffffffffffffffffffffffffffffff1681526020018981526020018881526020016000815260200187815260200160008152602001600015158152602001600015158152509080600181540180825580915050906001820390600052602060002090600702016000909192909190915060008201518160000160006101000a81548173ffffffffffffffffffffffffffffffffffffffff021916908373ffffffffffffffffffffffffffffffffffffffff160217905550602082015181600101556040820151816002015560608201518160030155608082015181600401908051906020019061343e9291906135d9565b5060a0820151816005015560c08201518160060160006101000a81548160ff02191690831515021790555060e08201518160060160016101000a81548160ff0219169083151502179055505050506009600081548092919060010191905055508587016002600082825403925050819055507fbc3c999363eb8c947290990a79dd7e660b38135845d30bc52d23810bb5ac698c33600160088054905003604051808373ffffffffffffffffffffffffffffffffffffffff1673ffffffffffffffffffffffffffffffffffffffff1681526020018281526020019250505060405180910390a15050505050505050565b600360009054906101000a900473ffffffffffffffffffffffffffffffffffffffff1681565b600a6020528160005260406000208181548110151561356e57fe5b9060005260206000209060020201600091509150508060000154908060010160009054906101000a900460ff16908060010160019054906101000a900460ff16905083565b600660009054906101000a900473ffffffffffffffffffffffffffffffffffffffff1681565b828054600181600116156101000203166002900490600052602060002090601f016020900481019282601f1061361a57805160ff1916838001178555613648565b82800160010185558215613648579182015b8281111561364757825182559160200191906001019061362c565b5b50905061365591906136d9565b5090565b828054600181600116156101000203166002900490600052602060002090601f016020900481019282601f1061369a57805160ff19168380011785556136c8565b828001600101855582156136c8579182015b828111156136c75782518255916020019190600101906136ac565b5b5090506136d591906136d9565b5090565b6136fb91905b808211156136f75760008160009055506001016136df565b5090565b905600a165627a7a7230582026b491e9aaf869a23e67e3e81824af87df660d53782b3d68dc325247622d96c60029",
  "source": "pragma solidity ^0.4.18;\n\nimport \"tokens/eip20/EIP20.sol\";\n\n\ncontract DelphiStake {\n\n    event ClaimantWhitelisted(address _claimant);\n    event ClaimOpened(address _claimant, uint _claimId);\n    event FeeIncreased(address _increasedBy, uint _claimId, uint _amount);\n    event SettlementProposed(address _proposedBy, uint _claimId, uint _settlementId);\n    event SettlementAccepted(address _acceptedBy, uint _claimId, uint _settlementId);\n    event SettlementFailed(address _failedBy, uint _claimId);\n    event ClaimRuled(uint _claimId);\n    event ReleaseTimeIncreased(uint _stakeReleaseTime);\n    event StakeWithdrawn();\n    event StakeIncreased(address _increasedBy, uint _value);\n    event StakeCreated(address staker, uint value, uint _minimumFee, string data, uint stakeReleaseTime, address arbiter);\n\n\n    struct Claim {\n      address claimant;\n      uint amount;\n      uint fee;\n      uint surplusFee;\n      string data;\n      uint ruling;\n      bool ruled;\n      bool settlementFailed;\n    }\n\n    struct Settlement {\n      uint amount;\n      bool stakerAgrees;\n      bool claimantAgrees;\n    }\n\n    address public masterCopy; // THIS MUST ALWAYS BE IN THE FIRST STORAGE SLOT\n\n    uint public minimumFee;\n\n    uint public claimableStake;\n    EIP20 public token;\n\n    string public data;\n\n    address public staker;\n    address public arbiter;\n\n    uint public stakeReleaseTime;\n\n    Claim[] public claims;\n    uint public openClaims;\n    mapping(uint => Settlement[]) public settlements;\n\n    mapping(address => uint) public whitelistedDeadlines;\n\n    modifier onlyStaker(){\n        require(msg.sender == staker);\n        _;\n    }\n\n    modifier validClaimID(uint _claimId){\n        require(_claimId < claims.length);\n        _;\n    }\n\n    modifier validSettlementId(uint _claimId, uint _settlementId){\n        require(_settlementId < settlements[_claimId].length);\n        _;\n    }\n\n    modifier notStakerOrArbiter(){\n        require(msg.sender!= staker && msg.sender!= arbiter);\n        _;\n    }\n\n    modifier onlyArbiter(){\n        require(msg.sender == arbiter);\n        _;\n    }\n\n    modifier onlyClaimant(uint _claimId){\n        require(msg.sender == claims[_claimId].claimant);\n        _;\n    }\n\n    modifier largeEnoughFee(uint _newFee){\n        require(_newFee >= minimumFee);\n        _;\n    }\n\n    modifier claimNotRuled(uint _claimId){\n        require(!claims[_claimId].ruled);\n        _;\n    }\n\n    modifier stakerCanPay(uint _amount, uint _fee){\n        require(claimableStake >= (_amount + _fee));\n        _;\n    }\n\n    modifier settlementDidFail(uint _claimId){\n        require(claims[_claimId].settlementFailed);\n        _;\n    }\n\n    modifier settlementDidNotFail(uint _claimId){\n        require(!claims[_claimId].settlementFailed);\n        _;\n    }\n\n    modifier onlyStakerOrClaimant(uint _claimId){\n        require(msg.sender == staker || msg.sender == claims[_claimId].claimant);\n        _;\n    }\n\n    modifier canOpenClaim(address _claimant){\n      require(whitelistedDeadlines[_claimant] >= now);\n      _;\n    }\n\n    modifier noOpenClaims(){\n      require(openClaims == 0);\n      _;\n    }\n\n    modifier stakeIsReleased(){\n      require (now > stakeReleaseTime);\n      _;\n    }\n\n    /*\n    @dev when creating a new Delphi Stake using a proxy contract architecture, a user must\n    initialialize their stake, depositing their tokens\n    @param _value the value of the stake in token units\n    @param _token the address of the token being deposited\n    @param _minimumFee the minimum fee which must be deposited by both parties for each claim\n    @param _data a content hash of the relevant associated data describing the stake\n    @param _claimDeadline the deadline for opening new cliams; the earliest moment that\n    a stake can be withdrawn by the staker\n    @param _arbiter the address which is able to rule on open claims\n    */\n    function initDelphiStake(uint _value, EIP20 _token, uint _minimumFee, string _data, uint _stakeReleaseTime, address _arbiter)\n    public\n    {\n        require(_stakeReleaseTime > now);\n\n        // This function can only be called if it hasn't been called before, or if the token was\n        // set to 0 when it was called previously.\n        require(token == address(0));\n\n        // Require reasonable inputs\n        require(_arbiter != address(0));\n\n        // Revert if the specified value to stake cannot be transferred in\n        require(_token.transferFrom(msg.sender, this, _value));\n\n        // Initialize contract storage.\n        claimableStake = _value;\n        token = _token;\n        minimumFee = _minimumFee;\n        data = _data;\n        stakeReleaseTime = _stakeReleaseTime;\n        arbiter = _arbiter;\n        staker = msg.sender;\n\n        StakeCreated(staker, claimableStake, minimumFee, data, stakeReleaseTime, arbiter);\n    }\n\n    /*\n    @dev before going into business with a staker, the staker's counterparty should expect to be\n    \"whitelisted for claims\" such that a clear path exists for the adjudication of disputes should\n    one arise in the course of events.\n    @param _claimant an address which, once whitelisted, can make claims against this stake\n    @param _deadline the timestamp before which the whitelisted individual may open a claim\n    */\n    function whitelistClaimant(address _claimant, uint _deadline)\n    public\n    onlyStaker\n    {\n      // the new deadline should be greater than the existing one\n      require(_deadline >= whitelistedDeadlines[_claimant]);\n\n      // Whitelist the claimant by setting their entry in the whitelistedDeadlines mapping to their deadline\n      whitelistedDeadlines[_claimant] = _deadline;\n\n      // Emit an event noting that this claimant was whitelisted\n      ClaimantWhitelisted(_claimant);\n    }\n\n    /*\n    @dev a whitelisted claimant can use this function to make a claim for remuneration. Once\n    opened, an opportunity for pre-arbitration settlement will commence, but claims cannot be\n    unilaterally cancelled. Claims can only be opened for whitelisted individuals, however\n    anyone may open a claim on a whitelisted individual's behalf (depositing the necessary fee for them)\n    @param _claimant the entity which will act as the claimant in the course of the adjudication.\n    @param _amount the size of the claim being made, denominated in the stake's token. Must be less\n    than or equal to the current amount of stake not locked up in other disputes, minus the fee deposited.\n    @param _fee the size of the fee, denominated in the stake's token, to be offered to the arbiter\n    as compensation for their service in adjudicating the dispute. If the claimant loses the claim,\n    they lose this fee.\n    @param _data an arbitrary string, perhaps an IPFS hash, containing data substantiating the\n    basis for the claim.\n    */\n    function openClaim(address _claimant, uint _amount, uint _fee, string _data)\n    public\n    notStakerOrArbiter\n    stakerCanPay(_amount, _fee)\n    canOpenClaim(_claimant)\n    largeEnoughFee(_fee)\n    {\n        // Transfer the fee into the DelphiStake\n        require(token.transferFrom(_claimant, this, _fee));\n\n        // Add a new claim to the claims array and increment the openClaims counter. Because there\n        // is necessarily at least one open claim now, pause any active withdrawal (lockup)\n        // countdown.\n        claims.push(Claim(_claimant, _amount, _fee, 0, _data, 0, false, false));\n        openClaims ++;\n\n        // The claim amount and claim fee are reserved for this particular claim until the arbiter\n        // rules\n        claimableStake -= (_amount + _fee);\n\n        // Emit an event that a claim was opened by the message sender (not the claimant), and\n        // include the claim's ID.\n        ClaimOpened(msg.sender, claims.length - 1);\n    }\n\n    /*\n    @dev a whitelisted claimant can use this function to make a claim for remuneration. Opened claims\n    will proceed directly to full arbitration, when their claims can be ruled upon. Claims can\n    only be opened for whitelisted individuals, however anyone may open a claim on a whitelisted\n    individual's behalf (depositing the necessary fee for them)\n    @param _claimant the entity which will act as the claimant in the course of the adjudication.\n    @param _amount the size of the claim being made, denominated in the stake's token. Must be less\n    than or equal to the current amount of stake not locked up in other disputes, minus the fee deposited.\n    @param _fee the size of the fee, denominated in the stake's token, to be offered to the arbiter\n    as compensation for their service in adjudicating the dispute. If the claimant loses the claim,\n    they lose this fee.\n    @param _data an arbitrary string, perhaps an IPFS hash, containing data substantiating the\n    basis for the claim.\n    */\n    function openClaimWithoutSettlement(address _claimant, uint _amount, uint _fee, string _data)\n    public\n    notStakerOrArbiter\n    stakerCanPay(_amount, _fee)\n    canOpenClaim(_claimant)\n    largeEnoughFee(_fee)\n    {\n        require(token.transferFrom(_claimant, this, _fee));\n        claims.push(Claim(_claimant, _amount, _fee, 0, _data, 0, false, true));\n        openClaims ++;\n\n        // The claim amount and claim fee are reserved for this particular claim until the arbiter\n        // rules\n        claimableStake -= (_amount + _fee);\n        // the claim amount and claim fee are locked up in this contract until the arbiter rules\n\n        ClaimOpened(msg.sender, claims.length - 1);\n    }\n\n    /*\n    @dev increase the arbiter fee being offered for this claim. Regardless of how the claim is\n    ruled, this fee is not returned. The fee cannot be increased while still in the settlement\n    phase, or after a ruling has been submitted.\n    @param _claimId the ID of the claim to boost the fee for\n    @param _amount the amount, denominated in the stake's token, to increase the fee by\n    */\n    function increaseClaimFee(uint _claimId, uint _amount)\n    public\n    validClaimID(_claimId)\n    claimNotRuled(_claimId)\n    settlementDidFail(_claimId)\n    {\n      // Transfer tokens from the message sender to this contract and increment the surplusFee\n      // record for this claim by the amount transferred.\n      require(token.transferFrom(msg.sender, this, _amount));\n      claims[_claimId].surplusFee += _amount;\n\n      // Emit a FeeIncreased event including data on who increased the fee, which claim the fee was\n      // increased for, and by what amount.\n      FeeIncreased(msg.sender, _claimId, _amount);\n    }\n\n    /*\n    @dev once a claim has been opened, either party can propose settlements to resolve the matter\n    without getting the arbiter involved. If a settlement is accepted, both parties recover the fee\n    they would otherwise forfeit in the arbitration process.\n    @param _claimId the claim to propose a settlement amount for\n    @param _amount the size of the proposed settlement, denominated in the stake's token\n    */\n    function proposeSettlement(uint _claimId, uint _amount)\n    public\n    validClaimID(_claimId)\n    onlyStakerOrClaimant(_claimId)\n    settlementDidNotFail(_claimId)\n    {\n      // Only allow settlements for up to the amount that has been reserved (locked) for this claim\n      require((claims[_claimId].amount + claims[_claimId].fee) >= _amount);\n\n      // Add a new settlement to this claim's settlement array. Depending on who proposed the\n      // settlement, set their \"agrees\" flag to true upon proposal.\n      if (msg.sender == staker){\n        settlements[_claimId].push(Settlement(_amount, true, false));\n      } else {\n        settlements[_claimId].push(Settlement(_amount, false, true));\n      }\n\n      // Emit an event including the settlement proposed, the claimID the settlement is proposed\n      // for, and the settlement ID.\n      SettlementProposed(msg.sender, _claimId, settlements[_claimId].length - 1);\n    }\n\n    /*\n    @dev once either party in a claim has proposed a settlement, the opposite party can choose to\n    accept the settlement. The settlement proposer implicitly accepts, so only the counterparty\n    needs to invoke this function.\n    @param _claimId the ID of the claim to accept a settlement for\n    @param _settlementId the ID of the specific settlement to accept for the specified claim\n    */\n    function acceptSettlement(uint _claimId, uint _settlementId)\n    public\n    validClaimID(_claimId)\n    validSettlementId(_claimId, _settlementId)\n    onlyStakerOrClaimant(_claimId)\n    settlementDidNotFail(_claimId)\n    {\n      Settlement storage settlement = settlements[_claimId][_settlementId];\n      Claim storage claim = claims[_claimId];\n\n      // Depending on who sent this message, set their agreement flag in the settlement to true\n      if (msg.sender == staker){\n        settlement.stakerAgrees = true;\n      } else {\n        settlement.claimantAgrees = true;\n      }\n\n      // Check if all conditions are met for the settlement to be agreed, and revert otherwise.\n      // For a settlement to be agreed, both the staker and claimaint must accept the settlement,\n      // settlement must not have been rejected previously by either party, and the claim must not\n      // be ruled. Claims are ruled for which settlements have been accepted, so this prevents\n      // multiple settlements from being accepted for a single claim.\n      require (settlement.claimantAgrees &&\n              settlement.stakerAgrees &&\n              !claim.settlementFailed &&\n              !claim.ruled);\n\n      // Set this claim's ruled flag to true to prevent further actions (settlements or\n      // arbitration) being taken against this claim.\n      claim.ruled = true;\n\n      // Increase the stake's claimable stake by the claim amount and fee, minus the agreed\n      // settlement amount. Then decrement the openClaims counter, since this claim is resolved.\n      claimableStake += (claim.amount + claim.fee - settlement.amount);\n      openClaims --;\n\n      // Transfer to the claimant the settlement amount, plus the fee they deposited.\n      require(token.transfer(claim.claimant, (settlement.amount + claim.fee)));\n\n      // Emit an event including who accepted the settlement, the claimId and the settlementId\n      SettlementAccepted(msg.sender, _claimId, _settlementId);\n    }\n\n    /*\n    @dev Either party in a claim can call settlementFailed at any time to move the claim from\n    settlement to arbitration.\n    @param _claimId the ID of the claim to reject settlement for\n    */\n    function settlementFailed(uint _claimId)\n    public\n    validClaimID(_claimId)\n    onlyStakerOrClaimant(_claimId)\n    settlementDidNotFail(_claimId)\n    {\n      // Set the claim's settlementFailed flag to true, preventing further settlement proposals\n      // and settlement agreements.\n      claims[_claimId].settlementFailed = true;\n\n      // Emit an event stating who rejected the settlement, and for which claim settlement was\n      // rejected.\n      SettlementFailed(msg.sender, _claimId);\n    }\n\n    /*\n    @dev This function can only be invoked by the stake's arbiter, and is used to resolve the\n    claim. Invoking this function will rule the claim and pay out the appropriate parties.\n    @param _claimId The ID of the claim to submit the ruling for\n    @param _ruling The ruling. 0 if the claim is justified, 1 if the claim is not justified, 2 if\n    the claim is collusive (the claimant is the staker or an ally of the staker), or 3 if the claim\n    cannot be ruled for any reason.\n    */\n    function ruleOnClaim(uint _claimId, uint _ruling)\n    public\n    onlyArbiter\n    validClaimID(_claimId)\n    claimNotRuled(_claimId)\n    settlementDidFail(_claimId)\n    {\n        Claim storage claim = claims[_claimId];\n\n        // Set the claim's ruled flag to true, and record the ruling.\n        claim.ruled = true;\n        claim.ruling = _ruling;\n\n        if (_ruling == 0){\n          // The claim is justified. Transfer to the arbiter their fee.\n          require(token.transfer(arbiter, (claim.fee + claim.surplusFee)));\n          require(token.transfer(claim.claimant, (claim.amount + claim.fee)));\n        } else if (_ruling == 1){\n          // The claim is not justified. Free up the claim amount and fee for future claims, and\n          // transfer to the arbiter their fee.\n          claimableStake += (claim.amount + claim.fee);\n          require(token.transfer(arbiter, (claim.fee + claim.surplusFee)));\n        } else if (_ruling == 2){\n          // The claim is collusive. Transfer to the arbiter both the staker and claimant fees, and\n          // burn the claim amount.\n          require(token.transfer(arbiter, (claim.fee + claim.fee + claim.surplusFee)));\n          require(token.transfer(address(0), claim.amount));\n          // burns the claim amount in the event of collusion\n        } else if (_ruling == 3){\n          // The claim cannot be ruled. Free up the claim amount and fee.\n          claimableStake += (claim.amount + claim.fee);\n          require(token.transfer(claim.claimant, (claim.amount + claim.fee)));\n          // TODO: send fsurplus to arbiters\n        } else {\n          revert();\n        }\n\n        // The claim is ruled. Decrement the total number of open claims.\n        openClaims--;\n\n        // Emit an event stating which claim was ruled.\n        ClaimRuled(_claimId);\n    }\n\n    /*\n    @dev Increases the stake in this DelphiStake\n    @param _value the number of tokens to transfer into this stake\n    */\n    function increaseStake(uint _value)\n    public\n    onlyStaker\n    {\n        // Transfer _value tokens from the message sender into this contract, and increment the\n        // claimableStake by _value.\n        require(token.transferFrom(msg.sender, this, _value));\n        claimableStake += _value;\n        StakeIncreased(msg.sender, _value);\n    }\n\n    /*\n    @dev Increases the deadline for opening claims\n    @param _newClaimDeadline the unix time stamp (in seconds) before which claims may be opened\n    */\n    function extendStakeReleaseTime(uint _stakeReleaseTime)\n    public\n    onlyStaker\n    {\n        require(_stakeReleaseTime > stakeReleaseTime);\n        stakeReleaseTime = _stakeReleaseTime;\n        ReleaseTimeIncreased(_stakeReleaseTime);\n    }\n\n    /*\n    @dev Returns the stake to the staker, if the claim deadline has elapsed and no open claims remain\n    @param _newClaimDeadline the unix time stamp (in seconds) before which claims may be opened\n    */\n    function withdrawStake()\n    public\n    onlyStaker\n    stakeIsReleased\n    noOpenClaims\n    {\n        uint oldStake = claimableStake;\n        claimableStake = 0;\n        require(token.transfer(staker, oldStake));\n        StakeWithdrawn();\n    }\n\n    /*\n    @dev Getter function to return the total number of claims which have ever been made against\n    this stake.\n    */\n    function getNumClaims()\n    public\n    view\n    returns (uint)\n    {\n      // Return the length of the claims array. Claims are never removed from this array, no matter\n      // if or how they are resolved.\n      return claims.length;\n    }\n\n    /*\n    @dev Getter function to return the total available fee for any historical claim\n    */\n    function getTotalFeeForClaim(uint _claimId)\n    public\n    view\n    returns (uint)\n    {\n      Claim storage claim = claims[_claimId];\n\n      // The total available fee is the claim fee, plus any surplus fee provided by either party\n      return claim.fee + claim.surplusFee;\n    }\n\n}\n",
  "sourcePath": "/usr/src/app/delphi-unchained/contracts/DelphiStake.sol",
  "compiler": {
    "name": "solc",
    "version": "0.4.23+commit.124ca40d.Emscripten.clang"
  },
  "schemaVersion": "2.0.0",
  "updatedAt": "2018-05-17T00:00:38.199Z"
}