{
  "contractName": "DelphiVoting",
  "abi": [
    {
      "constant": true,
      "inputs": [],
      "name": "parameterizer",
      "outputs": [
        {
          "name": "",
          "type": "address"
        }
      ],
      "payable": false,
      "stateMutability": "view",
      "type": "function"
    },
    {
      "constant": true,
      "inputs": [
        {
          "name": "",
          "type": "bytes32"
        }
      ],
      "name": "claims",
      "outputs": [
        {
          "name": "commitEndTime",
          "type": "uint256"
        },
        {
          "name": "revealEndTime",
          "type": "uint256"
        },
        {
          "name": "result",
          "type": "uint8"
        }
      ],
      "payable": false,
      "stateMutability": "view",
      "type": "function"
    },
    {
      "constant": true,
      "inputs": [],
      "name": "arbiterSet",
      "outputs": [
        {
          "name": "",
          "type": "address"
        }
      ],
      "payable": false,
      "stateMutability": "view",
      "type": "function"
    },
    {
      "inputs": [
        {
          "name": "_arbiterSet",
          "type": "address"
        },
        {
          "name": "_parameterizer",
          "type": "address"
        }
      ],
      "payable": false,
      "stateMutability": "nonpayable",
      "type": "constructor"
    },
    {
      "anonymous": false,
      "inputs": [
        {
          "indexed": false,
          "name": "voter",
          "type": "address"
        },
        {
          "indexed": false,
          "name": "_claimId",
          "type": "bytes32"
        }
      ],
      "name": "VoteCommitted",
      "type": "event"
    },
    {
      "constant": false,
      "inputs": [
        {
          "name": "_stake",
          "type": "address"
        },
        {
          "name": "_claimNumber",
          "type": "uint256"
        },
        {
          "name": "_secretHash",
          "type": "bytes32"
        }
      ],
      "name": "commitVote",
      "outputs": [],
      "payable": false,
      "stateMutability": "nonpayable",
      "type": "function"
    },
    {
      "constant": false,
      "inputs": [
        {
          "name": "_claimId",
          "type": "bytes32"
        },
        {
          "name": "_vote",
          "type": "uint256"
        },
        {
          "name": "_salt",
          "type": "uint256"
        }
      ],
      "name": "revealVote",
      "outputs": [],
      "payable": false,
      "stateMutability": "nonpayable",
      "type": "function"
    },
    {
      "constant": false,
      "inputs": [
        {
          "name": "_stake",
          "type": "address"
        },
        {
          "name": "_claimNumber",
          "type": "uint256"
        }
      ],
      "name": "submitRuling",
      "outputs": [],
      "payable": false,
      "stateMutability": "nonpayable",
      "type": "function"
    },
    {
      "constant": false,
      "inputs": [
        {
          "name": "_stake",
          "type": "address"
        },
        {
          "name": "_claimNumber",
          "type": "uint256"
        },
        {
          "name": "_vote",
          "type": "uint256"
        },
        {
          "name": "_salt",
          "type": "uint256"
        }
      ],
      "name": "claimFee",
      "outputs": [],
      "payable": false,
      "stateMutability": "nonpayable",
      "type": "function"
    },
    {
      "constant": true,
      "inputs": [
        {
          "name": "_claimId",
          "type": "bytes32"
        }
      ],
      "name": "commitPeriodActive",
      "outputs": [
        {
          "name": "",
          "type": "bool"
        }
      ],
      "payable": false,
      "stateMutability": "view",
      "type": "function"
    },
    {
      "constant": true,
      "inputs": [
        {
          "name": "_claimId",
          "type": "bytes32"
        }
      ],
      "name": "revealPeriodActive",
      "outputs": [
        {
          "name": "",
          "type": "bool"
        }
      ],
      "payable": false,
      "stateMutability": "view",
      "type": "function"
    },
    {
      "constant": true,
      "inputs": [
        {
          "name": "_claimId",
          "type": "bytes32"
        }
      ],
      "name": "claimExists",
      "outputs": [
        {
          "name": "",
          "type": "bool"
        }
      ],
      "payable": false,
      "stateMutability": "view",
      "type": "function"
    },
    {
      "constant": true,
      "inputs": [
        {
          "name": "_claimId",
          "type": "bytes32"
        },
        {
          "name": "_arbiter",
          "type": "address"
        }
      ],
      "name": "getArbiterCommitForClaim",
      "outputs": [
        {
          "name": "",
          "type": "bytes32"
        }
      ],
      "payable": false,
      "stateMutability": "view",
      "type": "function"
    },
    {
      "constant": true,
      "inputs": [
        {
          "name": "_claimId",
          "type": "bytes32"
        },
        {
          "name": "_option",
          "type": "uint256"
        }
      ],
      "name": "revealedVotesForOption",
      "outputs": [
        {
          "name": "",
          "type": "uint256"
        }
      ],
      "payable": false,
      "stateMutability": "view",
      "type": "function"
    },
    {
      "constant": true,
      "inputs": [
        {
          "name": "_stake",
          "type": "address"
        },
        {
          "name": "_claimNumber",
          "type": "uint256"
        }
      ],
      "name": "claimIsRuled",
      "outputs": [
        {
          "name": "",
          "type": "bool"
        }
      ],
      "payable": false,
      "stateMutability": "view",
      "type": "function"
    }
  ],
  "bytecode": "0x608060405234801561001057600080fd5b50604051604080611f078339810180604052810190808051906020019092919080519060200190929190505050816000806101000a81548173ffffffffffffffffffffffffffffffffffffffff021916908373ffffffffffffffffffffffffffffffffffffffff16021790555080600160006101000a81548173ffffffffffffffffffffffffffffffffffffffff021916908373ffffffffffffffffffffffffffffffffffffffff1602179055505050611e38806100cf6000396000f3006080604052600436106100c5576000357c0100000000000000000000000000000000000000000000000000000000900463ffffffff1680630477b59b146100ca5780630ddd571414610113578063168793441461015857806327f429d8146101a157806328fbf28a146101fc578063d11f59ec14610245578063dbf3897c146102b2578063e1e3f91514610317578063e7362c231461036e578063eff0f592146103bb578063f18fc6ad1461041c578063fb8d870514610473578063fe8fea36146104c2575b600080fd5b3480156100d657600080fd5b506100f96004803603810190808035600019169060200190929190505050610523565b604051808215151515815260200191505060405180910390f35b34801561011f57600080fd5b50610156600480360381019080803560001916906020019092919080359060200190929190803590602001909291905050506105c7565b005b34801561016457600080fd5b5061018760048036038101908080356000191690602001909291905050506109cf565b604051808215151515815260200191505060405180910390f35b3480156101ad57600080fd5b506101fa600480360381019080803573ffffffffffffffffffffffffffffffffffffffff169060200190929190803590602001909291908035600019169060200190929190505050610a0d565b005b34801561020857600080fd5b5061022b6004803603810190808035600019169060200190929190505050610d6c565b604051808215151515815260200191505060405180910390f35b34801561025157600080fd5b506102946004803603810190808035600019169060200190929190803573ffffffffffffffffffffffffffffffffffffffff169060200190929190505050610dbc565b60405180826000191660001916815260200191505060405180910390f35b3480156102be57600080fd5b506102fd600480360381019080803573ffffffffffffffffffffffffffffffffffffffff16906020019092919080359060200190929190505050610e22565b604051808215151515815260200191505060405180910390f35b34801561032357600080fd5b5061032c610faa565b604051808273ffffffffffffffffffffffffffffffffffffffff1673ffffffffffffffffffffffffffffffffffffffff16815260200191505060405180910390f35b34801561037a57600080fd5b506103b9600480360381019080803573ffffffffffffffffffffffffffffffffffffffff16906020019092919080359060200190929190505050610fd0565b005b3480156103c757600080fd5b506103ea6004803603810190808035600019169060200190929190505050611146565b6040518084815260200183815260200182600381111561040657fe5b60ff168152602001935050505060405180910390f35b34801561042857600080fd5b5061043161117d565b604051808273ffffffffffffffffffffffffffffffffffffffff1673ffffffffffffffffffffffffffffffffffffffff16815260200191505060405180910390f35b34801561047f57600080fd5b506104ac6004803603810190808035600019169060200190929190803590602001909291905050506111a2565b6040518082815260200191505060405180910390f35b3480156104ce57600080fd5b50610521600480360381019080803573ffffffffffffffffffffffffffffffffffffffff1690602001909291908035906020019092919080359060200190929190803590602001909291905050506111dc565b005b600080600060026000856000191660001916815260200190815260200160002060000154915060026000856000191660001916815260200190815260200160002060010154905060008214801561057b575060008114155b15151561058457fe5b600082141580156105955750600081145b15151561059e57fe5b60008214806105ad5750600081145b156105bb57600092506105c0565b600192505b5050919050565b600080336000809054906101000a900473ffffffffffffffffffffffffffffffffffffffff1673ffffffffffffffffffffffffffffffffffffffff166301a5e3fe82604051808273ffffffffffffffffffffffffffffffffffffffff1673ffffffffffffffffffffffffffffffffffffffff166c0100000000000000000000000002815260140191505060405180910390206040518263ffffffff167c0100000000000000000000000000000000000000000000000000000000028152600401808260001916600019168152602001915050602060405180830381600087803b1580156106b357600080fd5b505af11580156106c7573d6000803e3d6000fd5b505050506040513d60208110156106dd57600080fd5b810190808051906020019092919050505015156106f957600080fd5b84600381111561070557fe5b9250600260008760001916600019168152602001908152602001600020915061072d86610d6c565b151561073857600080fd5b8160050160003373ffffffffffffffffffffffffffffffffffffffff1673ffffffffffffffffffffffffffffffffffffffff16815260200190815260200160002060009054906101000a900460ff1615151561079357600080fd5b60026000876000191660001916815260200190815260200160002060040160003373ffffffffffffffffffffffffffffffffffffffff1673ffffffffffffffffffffffffffffffffffffffff16815260200190815260200160002054600019168585604051808381526020018281526020019250505060405180910390206000191614151561082157600080fd5b6000600381111561082e57fe5b83600381111561083a57fe5b141561087457600182600301600080600381111561085457fe5b81526020019081526020016000206000828254019250508190555061096d565b6001600381111561088157fe5b83600381111561088d57fe5b14156108c8576001826003016000600160038111156108a857fe5b81526020019081526020016000206000828254019250508190555061096c565b600260038111156108d557fe5b8360038111156108e157fe5b141561091c576001826003016000600260038111156108fc57fe5b81526020019081526020016000206000828254019250508190555061096b565b60038081111561092857fe5b83600381111561093457fe5b141561096a57600182600301600060038081111561094e57fe5b8152602001908152602001600020600082825401925050819055505b5b5b5b60018260050160003373ffffffffffffffffffffffffffffffffffffffff1673ffffffffffffffffffffffffffffffffffffffff16815260200190815260200160002060006101000a81548160ff021916908315150217905550505050505050565b60006109da82610523565b15156109e557600080fd5b6002600083600019166000191681526020019081526020016000206000015442109050919050565b600080336000809054906101000a900473ffffffffffffffffffffffffffffffffffffffff1673ffffffffffffffffffffffffffffffffffffffff166301a5e3fe82604051808273ffffffffffffffffffffffffffffffffffffffff1673ffffffffffffffffffffffffffffffffffffffff166c0100000000000000000000000002815260140191505060405180910390206040518263ffffffff167c0100000000000000000000000000000000000000000000000000000000028152600401808260001916600019168152602001915050602060405180830381600087803b158015610af957600080fd5b505af1158015610b0d573d6000803e3d6000fd5b505050506040513d6020811015610b2357600080fd5b81019080805190602001909291905050501515610b3f57600080fd5b8585604051808373ffffffffffffffffffffffffffffffffffffffff1673ffffffffffffffffffffffffffffffffffffffff166c0100000000000000000000000002815260140182815260200192505050604051809103902092508591506000600102846000191614151515610bb457600080fd5b8173ffffffffffffffffffffffffffffffffffffffff1663199029866040518163ffffffff167c0100000000000000000000000000000000000000000000000000000000028152600401602060405180830381600087803b158015610c1857600080fd5b505af1158015610c2c573d6000803e3d6000fd5b505050506040513d6020811015610c4257600080fd5b810190808051906020019092919050505085101515610c6057600080fd5b610c6983610523565b1515610c7957610c7883611780565b5b610c82836109cf565b1515610c8d57600080fd5b8360026000856000191660001916815260200190815260200160002060040160003373ffffffffffffffffffffffffffffffffffffffff1673ffffffffffffffffffffffffffffffffffffffff16815260200190815260200160002081600019169055507f378881b5d2d0f50f0782bfc28c9194fbce3515be77236885f5256babb2e45c333384604051808373ffffffffffffffffffffffffffffffffffffffff1673ffffffffffffffffffffffffffffffffffffffff16815260200182600019166000191681526020019250505060405180910390a1505050505050565b6000610d7782610523565b1515610d8257600080fd5b610d8b826109cf565b158015610db557506002600083600019166000191681526020019081526020016000206001015442105b9050919050565b600060026000846000191660001916815260200190815260200160002060040160008373ffffffffffffffffffffffffffffffffffffffff1673ffffffffffffffffffffffffffffffffffffffff16815260200190815260200160002054905092915050565b6000806000808592508273ffffffffffffffffffffffffffffffffffffffff1663a888c2cd866040518263ffffffff167c010000000000000000000000000000000000000000000000000000000002815260040180828152602001915050600060405180830381600087803b158015610e9a57600080fd5b505af1158015610eae573d6000803e3d6000fd5b505050506040513d6000823e3d601f19601f82011682018060405250610100811015610ed957600080fd5b81019080805190602001909291908051906020019092919080519060200190929190805190602001909291908051640100000000811115610f1957600080fd5b82810190506020810184811115610f2f57600080fd5b8151856001820283011164010000000082111715610f4c57600080fd5b5050929190602001805190602001909291908051906020019092919080519060200190929190505050909192939495965090919293949550909192939450909192935090919250909150809250819350505081935050505092915050565b600160009054906101000a900473ffffffffffffffffffffffffffffffffffffffff1681565b60008060008484604051808373ffffffffffffffffffffffffffffffffffffffff1673ffffffffffffffffffffffffffffffffffffffff166c010000000000000000000000000281526014018281526020019250505060405180910390209250849150600260008460001916600019168152602001908152602001600020905061105983610523565b151561106457600080fd5b61106d836109cf565b158015611080575061107e83610d6c565b155b151561108b57600080fd5b611094816119e3565b8173ffffffffffffffffffffffffffffffffffffffff166396cf2a79858360020160009054906101000a900460ff1660038111156110ce57fe5b6040518363ffffffff167c01000000000000000000000000000000000000000000000000000000000281526004018083815260200182815260200192505050600060405180830381600087803b15801561112757600080fd5b505af115801561113b573d6000803e3d6000fd5b505050505050505050565b60026020528060005260406000206000915090508060000154908060010154908060020160009054906101000a900460ff16905083565b6000809054906101000a900473ffffffffffffffffffffffffffffffffffffffff1681565b6000600260008460001916600019168152602001908152602001600020600301600083815260200190815260200160002054905092915050565b6000806000806000336000809054906101000a900473ffffffffffffffffffffffffffffffffffffffff1673ffffffffffffffffffffffffffffffffffffffff166301a5e3fe82604051808273ffffffffffffffffffffffffffffffffffffffff1673ffffffffffffffffffffffffffffffffffffffff166c0100000000000000000000000002815260140191505060405180910390206040518263ffffffff167c0100000000000000000000000000000000000000000000000000000000028152600401808260001916600019168152602001915050602060405180830381600087803b1580156112cd57600080fd5b505af11580156112e1573d6000803e3d6000fd5b505050506040513d60208110156112f757600080fd5b8101908080519060200190929190505050151561131357600080fd5b8995508573ffffffffffffffffffffffffffffffffffffffff1663fc0c546a6040518163ffffffff167c0100000000000000000000000000000000000000000000000000000000028152600401602060405180830381600087803b15801561137a57600080fd5b505af115801561138e573d6000803e3d6000fd5b505050506040513d60208110156113a457600080fd5b81019080805190602001909291905050509450600260008b8b604051808373ffffffffffffffffffffffffffffffffffffffff1673ffffffffffffffffffffffffffffffffffffffff166c010000000000000000000000000281526014018281526020019250505060405180910390206000191660001916815260200190815260200160002093506114368a8a610e22565b151561144157600080fd5b8360060160003373ffffffffffffffffffffffffffffffffffffffff1673ffffffffffffffffffffffffffffffffffffffff16815260200190815260200160002060009054906101000a900460ff1615151561149c57600080fd5b8360040160003373ffffffffffffffffffffffffffffffffffffffff1673ffffffffffffffffffffffffffffffffffffffff16815260200190815260200160002054600019168888604051808381526020018281526020019250505060405180910390206000191614151561151057600080fd5b8360020160009054906101000a900460ff16600381111561152d57fe5b88600381111561153957fe5b600381111561154457fe5b14151561155057600080fd5b8573ffffffffffffffffffffffffffffffffffffffff16634f4e112d8a6040518263ffffffff167c010000000000000000000000000000000000000000000000000000000002815260040180828152602001915050602060405180830381600087803b1580156115bf57600080fd5b505af11580156115d3573d6000803e3d6000fd5b505050506040513d60208110156115e957600080fd5b810190808051906020019092919050505092508360030160008560020160009054906101000a900460ff16600381111561161f57fe5b8152602001908152602001600020548381151561163857fe5b0491508473ffffffffffffffffffffffffffffffffffffffff1663a9059cbb33846040518363ffffffff167c0100000000000000000000000000000000000000000000000000000000028152600401808373ffffffffffffffffffffffffffffffffffffffff1673ffffffffffffffffffffffffffffffffffffffff16815260200182815260200192505050602060405180830381600087803b1580156116de57600080fd5b505af11580156116f2573d6000803e3d6000fd5b505050506040513d602081101561170857600080fd5b81019080805190602001909291905050505060018460060160003373ffffffffffffffffffffffffffffffffffffffff1673ffffffffffffffffffffffffffffffffffffffff16815260200190815260200160002060006101000a81548160ff02191690831515021790555050505050505050505050565b600160009054906101000a900473ffffffffffffffffffffffffffffffffffffffff1673ffffffffffffffffffffffffffffffffffffffff1663693ec85e6040518163ffffffff167c010000000000000000000000000000000000000000000000000000000002815260040180806020018281038252600e8152602001807f636f6d6d697453746167654c656e000000000000000000000000000000000000815250602001915050602060405180830381600087803b15801561184257600080fd5b505af1158015611856573d6000803e3d6000fd5b505050506040513d602081101561186c57600080fd5b8101908080519060200190929190505050420160026000836000191660001916815260200190815260200160002060000181905550600160009054906101000a900473ffffffffffffffffffffffffffffffffffffffff1673ffffffffffffffffffffffffffffffffffffffff1663693ec85e6040518163ffffffff167c010000000000000000000000000000000000000000000000000000000002815260040180806020018281038252600e8152602001807f72657665616c53746167654c656e000000000000000000000000000000000000815250602001915050602060405180830381600087803b15801561196357600080fd5b505af1158015611977573d6000803e3d6000fd5b505050506040513d602081101561198d57600080fd5b810190808051906020019092919050505060026000836000191660001916815260200190815260200160002060000154016002600083600019166000191681526020019081526020016000206001018190555050565b60008160030160008060038111156119f757fe5b815260200190815260200160002054905060008260020160006101000a81548160ff02191690836003811115611a2957fe5b021790555081600301600060016003811115611a4157fe5b815260200190815260200160002054811015611aa25781600301600060016003811115611a6a57fe5b815260200190815260200160002054905060018260020160006101000a81548160ff02191690836003811115611a9c57fe5b02179055505b81600301600060026003811115611ab557fe5b815260200190815260200160002054811015611b165781600301600060026003811115611ade57fe5b815260200190815260200160002054905060028260020160006101000a81548160ff02191690836003811115611b1057fe5b02179055505b816003016000600380811115611b2857fe5b815260200190815260200160002054811015611b8857816003016000600380811115611b5057fe5b815260200190815260200160002054905060038260020160006101000a81548160ff02191690836003811115611b8257fe5b02179055505b60006003811115611b9557fe5b8260020160009054906101000a900460ff166003811115611bb257fe5b1415611c5e5781600301600060016003811115611bcb57fe5b815260200190815260200160002054811480611c07575081600301600060026003811115611bf557fe5b81526020019081526020016000205481145b80611c315750816003016000600380811115611c1f57fe5b81526020019081526020016000205481145b15611c5d5760038260020160006101000a81548160ff02191690836003811115611c5757fe5b02179055505b5b60016003811115611c6b57fe5b8260020160009054906101000a900460ff166003811115611c8857fe5b1415611d3357816003016000806003811115611ca057fe5b815260200190815260200160002054811480611cdc575081600301600060026003811115611cca57fe5b81526020019081526020016000205481145b80611d065750816003016000600380811115611cf457fe5b81526020019081526020016000205481145b15611d325760038260020160006101000a81548160ff02191690836003811115611d2c57fe5b02179055505b5b60026003811115611d4057fe5b8260020160009054906101000a900460ff166003811115611d5d57fe5b1415611e0857816003016000806003811115611d7557fe5b815260200190815260200160002054811480611db1575081600301600060016003811115611d9f57fe5b81526020019081526020016000205481145b80611ddb5750816003016000600380811115611dc957fe5b81526020019081526020016000205481145b15611e075760038260020160006101000a81548160ff02191690836003811115611e0157fe5b02179055505b5b50505600a165627a7a72305820eef0781d55503b871c22a25ec0d5416246bfa0c5d496ad7f2dcc1cf2f8f78c000029",
  "source": "pragma solidity ^0.4.18;\n\nimport \"tcr/Registry.sol\";\nimport \"tcr/Parameterizer.sol\";\nimport \"./DelphiStake.sol\";\n\ncontract DelphiVoting {\n\n  event VoteCommitted(address voter, bytes32 _claimId);\n\n  enum VoteOptions { Justified, NotJustified, Collusive, Fault }\n\n  struct Claim {\n    uint commitEndTime;\n    uint revealEndTime;\n    VoteOptions result;\n    mapping(uint => uint) tallies;\n    mapping(address => bytes32) commits;\n    mapping(address => bool) hasRevealed;\n    mapping(address => bool) claimedReward;\n  }\n\n  Registry public arbiterSet;\n  Parameterizer public parameterizer;\n\n  mapping(bytes32 => Claim) public claims;\n\n  modifier onlyArbiters(address _arbiter) {\n    require(arbiterSet.isWhitelisted(keccak256(_arbiter)));\n    _;\n  }\n\n  function DelphiVoting(address _arbiterSet, address _parameterizer) public {\n    arbiterSet = Registry(_arbiterSet);\n    parameterizer = Parameterizer(_parameterizer);\n  }\n\n  /**\n  @dev Commits a vote for the specified claim. Can be overwritten while commitPeriod is active\n  @param _stake the address of a DelphiStake contract\n  @param _claimNumber an initialized claim in the provided DelphiStake\n  @param _secretHash keccak256 of a vote and a salt\n  */\n  function commitVote(address _stake, uint _claimNumber, bytes32 _secretHash)\n  public onlyArbiters(msg.sender) {\n    bytes32 claimId = keccak256(_stake, _claimNumber);\n    DelphiStake ds = DelphiStake(_stake);\n\n    // Do not allow secretHash to be zero\n    require(_secretHash != 0);\n    // Check if the claim has been instantiated in the DelphiStake.\n    // Do not allow voting on claims which are uninitialized in the DS.\n    require(_claimNumber < ds.getNumClaims());\n\n    // Check if anybody has ever committed a vote for this claim before. If not, initialize a new\n    // claim by setting commit and reveal end times for this claim in the claims mapping\n    if(!claimExists(claimId)) {\n      initializeClaim(claimId);\n    }\n\n    // Do not allow votes to be committed after the commit period has ended\n    require(commitPeriodActive(claimId));\n\n    // Set this voter's commit for this claim to their provided secretHash.\n    claims[claimId].commits[msg.sender] = _secretHash;\n\n    // Fire an event saying the message sender voted for this claimID.\n    // TODO: Make this event fire the stake and claim number instead of the claimID.\n    VoteCommitted(msg.sender, claimId);\n  }\n\n  /**\n  @dev Reveals a vote for the specified claim.\n  @param _claimId the keccak256 of a DelphiStake address and a claim number for which the message\n  sender has previously committed a vote\n  @param _vote the option voted for in the original secret hash.\n  @param _salt the salt concatenated to the vote option when originally hashed to its secret form\n  */\n  function revealVote(bytes32 _claimId, uint _vote, uint _salt)\n  public onlyArbiters(msg.sender) {\n    VoteOptions vote = VoteOptions(_vote);\n    Claim storage claim = claims[_claimId];\n\n    // Do not allow revealing while the reveal period is not active\n    require(revealPeriodActive(_claimId));\n    // Do not allow a voter to reveal more than once\n    require(!claim.hasRevealed[msg.sender]);\n    // Require the provided vote is consistent with the original commit\n    require(keccak256(_vote, _salt) == claims[_claimId].commits[msg.sender]);\n\n    // Tally the vote\n    if(vote == VoteOptions.Justified) {\n      claim.tallies[uint(VoteOptions.Justified)] += 1;\n    }\n    else if(vote == VoteOptions.NotJustified) {\n      claim.tallies[uint(VoteOptions.NotJustified)] += 1;\n    }\n    else if(vote == VoteOptions.Collusive) {\n      claim.tallies[uint(VoteOptions.Collusive)] += 1;\n    }\n    else if(vote == VoteOptions.Fault) {\n      claim.tallies[uint(VoteOptions.Fault)] += 1;\n    }\n\n    // Set hasRevealed to true so this voter cannot reveal again\n    claim.hasRevealed[msg.sender] = true;\n  }\n\n  /**\n  @dev Submits a ruling to a DelphiStake contract\n  @param _stake address of a DelphiStake contract\n  @param _claimNumber nonce of a unique claim for the provided stake\n  */\n  function submitRuling(address _stake, uint _claimNumber) public {\n    bytes32 claimId = keccak256(_stake, _claimNumber);\n    DelphiStake ds = DelphiStake(_stake);\n    Claim storage claim = claims[claimId]; // Grabbing a pointer\n\n    // Do not allow submissions for claims which nobody has voted in\n    require(claimExists(claimId));\n    // Do not allow submissions where either the commit or reveal periods have not ended\n    require(!commitPeriodActive(claimId) && !revealPeriodActive(claimId));\n\n    // Tally the votes and set the result\n    tallyVotes(claim);\n\n    // Call the DS contract with the result of the arbitration\n    ds.ruleOnClaim(_claimNumber, uint256(claim.result));\n  }\n\n  /**\n  @dev allow an arbiter who participated in the plurality voting bloc to claim their share of the\n  fee\n  @param _stake address of a DelphiStake contract\n  @param _claimNumber nonce of a unique claim for the provided stake\n  @param _vote the option voted for in the original secret hash.\n  @param _salt the salt concatenated to the vote option when originally hashed to its secret form\n  */\n  function claimFee(address _stake, uint _claimNumber, uint _vote, uint _salt)\n  public onlyArbiters(msg.sender) {\n    DelphiStake ds = DelphiStake(_stake);\n    EIP20 token = ds.token();\n    Claim storage claim = claims[keccak256(_stake, _claimNumber)]; // Grabbing a pointer\n\n    // The ruling needs to have been submitted before an arbiter can claim their reward\n    require(claimIsRuled(_stake, _claimNumber));\n    // Do not allow arbiters to claim rewards for a claim more than once\n    require(!claim.claimedReward[msg.sender]);\n    // Check that the arbiter actually committed the vote they say they did\n    require(keccak256(_vote, _salt) == claim.commits[msg.sender]);\n    // Require the vote cast was in the plurality\n    require(VoteOptions(_vote) == claim.result);\n\n    // Get the total fee for the claim, compute what this arbiter's share is and transfer it\n    uint totalFee = ds.getTotalFeeForClaim(_claimNumber);\n    uint arbiterFee = totalFee/claim.tallies[uint(claim.result)]; // TODO: safemath\n    token.transfer(msg.sender, arbiterFee);\n\n    // Set claimedReward to true so the arbiter cannot claim again\n    claim.claimedReward[msg.sender] = true;\n  }\n\n  /**\n  @dev Checks if the commit period is still active for the specified claim\n  @param _claimId Integer identifier associated with target claim\n  @return bool indicating whetherh the commit period is active for this claim\n  */\n  function commitPeriodActive(bytes32 _claimId) view public returns (bool) {\n      require(claimExists(_claimId));\n\n      return (block.timestamp < claims[_claimId].commitEndTime);\n  }\n\n  /**\n  @dev Checks if the reveal period is still active for the specified claim\n  @param _claimId the keccak256 of a DelphiStake address and a claim number\n  @return bool indicating whetherh the reveal period is active for this claim\n  */\n  function revealPeriodActive(bytes32 _claimId) view public returns (bool) {\n      require(claimExists(_claimId));\n\n      return\n        ((!commitPeriodActive(_claimId)) && (block.timestamp < claims[_claimId].revealEndTime));\n  }\n\n  /**\n  @dev Checks if a claim exists, throws if the provided claim is in an impossible state\n  @param _claimId the keccak256 of a DelphiStake address and a claim number\n  @return Boolean Indicates whether a claim exists for the provided claimId\n  */\n  function claimExists(bytes32 _claimId) view public returns (bool) {\n    uint commitEndTime = claims[_claimId].commitEndTime;\n    uint revealEndTime = claims[_claimId].revealEndTime;\n\n    // It should not be possible that one of these is zero while the other is not.\n    assert(!(commitEndTime == 0 && revealEndTime != 0));\n    assert(!(commitEndTime != 0 && revealEndTime == 0));\n\n    // If either is zero, this claim does not exist.\n    if(commitEndTime == 0 || revealEndTime == 0) { return false; }\n    return true;\n  }\n\n  /**\n  @dev returns the commit hash of the provided arbiter for some claim\n  @param _claimId the keccak256 of a DelphiStake address and a claim number\n  @return bytes32 the arbiter's commit hash for this claim\n  */\n  function getArbiterCommitForClaim(bytes32 _claimId, address _arbiter)\n  view public returns (bytes32) {\n    return claims[_claimId].commits[_arbiter];\n  }\n\n  /**\n  @dev Returns the number of revealed votes for the provided vote option in a given claim\n  @param _claimId the keccak256 of a DelphiStake address and a claim number\n  @param _option The vote option to return a total for\n  @return uint Tally of revealed votes for the provided option in the given claimId\n  */\n  function revealedVotesForOption(bytes32 _claimId, uint _option) public view returns (uint) {\n    return claims[_claimId].tallies[_option];\n  }\n\n  /*\n  @dev utility function for determining whether a claim has been ruled. Used by claimFee to \n  determine whether fees should be disbured.\n  @param _stake the DelphiStake whose storage is to be inspected.\n  @param _claimNumber the unique claim number we are determining if a ruling has been submitted\n  for\n  @return bool True if a ruling has been submitted for the claim, false otherwise\n  */\n  function claimIsRuled(address _stake, uint _claimNumber) public view returns (bool) {\n    DelphiStake ds = DelphiStake(_stake);\n    bool ruled;\n    bool settlementFailed;\n\n    // Tuple destructuring. settlementFailed is a throwaway value, but is needed by the compiler.\n    (, ruled, settlementFailed) = ds.claims(_claimNumber);\n\n    return ruled;\n  }\n\n  /**\n  @dev Initialize a claim struct by setting its commit and reveal end times\n  @param _claimId the keccak256 of a DelphiStake address and a claim number\n  */\n  function initializeClaim(bytes32 _claimId) private {\n    claims[_claimId].commitEndTime = now + parameterizer.get('commitStageLen');\n    claims[_claimId].revealEndTime =\n      claims[_claimId].commitEndTime + parameterizer.get('revealStageLen');\n  }\n\n  /**\n  @dev Updates the winning option in the claim to that with the greatest number of votes\n  @param _claim storage pointer to a Claim struct\n  */\n  function tallyVotes(Claim storage _claim) private {\n    uint greatest = _claim.tallies[uint(VoteOptions.Justified)];\n    _claim.result = VoteOptions.Justified;\n\n    // get greatest and set result\n    if(greatest < _claim.tallies[uint(VoteOptions.NotJustified)]) {\n      greatest = _claim.tallies[uint(VoteOptions.NotJustified)];\n      _claim.result = VoteOptions.NotJustified;\n    }\n    if(greatest < _claim.tallies[uint(VoteOptions.Collusive)]) {\n      greatest = _claim.tallies[uint(VoteOptions.Collusive)];\n      _claim.result = VoteOptions.Collusive;\n    }\n    if(greatest < _claim.tallies[uint(VoteOptions.Fault)]) {\n      greatest = _claim.tallies[uint(VoteOptions.Fault)];\n      _claim.result = VoteOptions.Fault;\n    }\n\n    // see if greatest is tied with anything else and set fault if so\n    if(_claim.result == VoteOptions.Justified) {\n      if(greatest == _claim.tallies[uint(VoteOptions.NotJustified)] ||\n         greatest == _claim.tallies[uint(VoteOptions.Collusive)] ||\n         greatest == _claim.tallies[uint(VoteOptions.Fault)]) {\n        _claim.result = VoteOptions.Fault;\n      }\n    }\n    if(_claim.result == VoteOptions.NotJustified) {\n      if(greatest == _claim.tallies[uint(VoteOptions.Justified)] ||\n         greatest == _claim.tallies[uint(VoteOptions.Collusive)] ||\n         greatest == _claim.tallies[uint(VoteOptions.Fault)]) {\n        _claim.result = VoteOptions.Fault;\n      }\n    }\n    if(_claim.result == VoteOptions.Collusive) {\n      if(greatest == _claim.tallies[uint(VoteOptions.Justified)] ||\n         greatest == _claim.tallies[uint(VoteOptions.NotJustified)] ||\n         greatest == _claim.tallies[uint(VoteOptions.Fault)]) {\n        _claim.result = VoteOptions.Fault;\n      }\n    }\n    // if(_claim.result = VoteOptions.Fault), the result is already fault, so don't bother checking\n  }\n}\n",
  "sourcePath": "/usr/src/app/Delphi/contracts/DelphiVoting.sol",
  "compiler": {
    "name": "solc",
    "version": "0.4.23+commit.124ca40d.Emscripten.clang"
  },
  "schemaVersion": "2.0.0",
  "updatedAt": "2018-05-20T01:50:43.477Z"
}